:020000040800F2
:10000000A8070020A9350008A1020008A3020008E3
:10001000A7020008AB020008AF02000800000000C1
:10002000000000000000000000000000B302000813
:10003000B502000800000000B7020008B90200087D
:10004000C3350008C3350008C3350008C3350008B0
:10005000C3350008C3350008C3350008C3350008A0
:10006000C3350008C3350008C3350008C335000890
:10007000C3350008C3350008C3350008C335000880
:10008000C3350008C3350008C3350008C335000870
:10009000C3350008C3350008C3350008C335000860
:1000A000C3350008C3350008C3350008C335000850
:1000B000C3350008C3350008C3350008C335000840
:1000C000C3350008C3350008C3350008C335000830
:1000D000C33500081D350008C3350008C3350008C6
:1000E000C3350008C3350008C3350008C335000810
:1000F000C3350008C3350008C3350008C335000800
:10010000C3350008C3350008C3350008C3350008EF
:10011000C3350008C3350008C3350008C3350008DF
:10012000C3350008C3350008C3350008C3350008CF
:10013000C3350008C3350008C3350008C3350008BF
:10014000C3350008C3350008C3350008C3350008AF
:10015000C3350008C3350008C3350008C33500089F
:10016000C3350008C3350008C3350008C33500088F
:10017000C3350008C3350008C3350008C33500087F
:10018000C3350008C335000800F002F800F041F85C
:100190000AA090E8000C82448344AAF10107DA45E2
:1001A00001D100F036F8AFF2090EBAE80F0013F0F3
:1001B000010F18BFFB1A43F00103184788720000B3
:1001C000A8720000103A24BF78C878C1FAD8520744
:1001D00024BF30C830C144BF04680C6070470000C1
:1001E0000023002400250026103A28BF78C1FBD840
:1001F000520728BF30C148BF0B607047782904F010
:100200002784002070471FB505F059F81FBD10B5B1
:1002100010BD04F093FD1146FFF7F5FF00F008F85C
:1002200004F0B1FD03B4FFF7F2FF03BC03F016F9CD
:100230000EB500BF4FF4A06003F0D6F9A82003F07C
:100240008BF84FF4E13003F017F901F06BFB01F08C
:100250002DFC4FF478400D4908800D4882880DA18F
:10026000684604F0B9FB0FE000F073F900F0AFF955
:1002700000F056FA00F018FB00F0FAFB00F038FC32
:1002800000F073FC00F0BDFCEEE700001E00002053
:10029000700000204C43442049443A253034580033
:1002A000704700BFFEE700BFFEE700BFFEE700BFEC
:1002B000FEE7704770477047704700000CB500209C
:1002C000019000907648006840F4803074490860DE
:1002D00000BF7348006800F4003000900198401C93
:1002E0000190009818B90198B0F5A04FF1D16C4871
:1002F000006800F4003010B10120009001E00020FF
:1003000000900098012846D165484030006840F0D0
:1003100080506349403108606248006840F44040C2
:10032000604908605E48083000685D49083108602F
:100330000846006840F4004008600846006840F441
:10034000A05008605848091F0860081F006840F066
:100350008070091F086000BF5148006800F00070FD
:100360000028F9D040F20570504908604C48083028
:10037000006820F003004A49083108600846006818
:1003800040F00200086000BF45480830006800F0F7
:100390000C000828F8D10CBD10B54548006840F4A1
:1003A0007000434908603E48006840F001003C4945
:1003B000086000203A4908310860394800683D4922
:1003C0000840374908603C48091D0860081F00685C
:1003D00020F48020091F0860002031490C3108609A
:1003E000FFF76CFF4FF0006031498039086010BDA5
:1003F00070B500200022022300240221284D083578
:100400002D6805F00C0020B1042806D0082834D14E
:1004100007E02A4D2A4E356033E02A4D284E3560DC
:100420002FE01F4D2D1D2D68C5F380541C4D2D1D33
:100430002D6805F03F0154B1224DB5FBF1F5184E82
:10044000361D3668C6F3881605FB06F209E01B4D1B
:10045000B5FBF1F5124E361D3668C6F3881605FB5E
:1004600006F20F4D2D1D2D68C5F301456D1C6B0067
:10047000B2FBF3F5124E356003E0104D104E3560BF
:1004800000BF00BF064D08352D68C5F303150E4E9D
:10049000705D0B4D2D68C540094E356070BD000084
:1004A000003802400070004008544007003C024001
:1004B00088ED00E0FFFFF6FE103000240024F40079
:1004C0000000002000127A00040000203EB504461F
:1004D0001F200090FE48028814230021084600F0E7
:1004E0004FFD1F200090FA48438802884088143846
:1004F00081B2002000F044FD4FF6FF70F5490880FE
:10050000012010211F234FF6FF72CDE90041029018
:100510000221002001F0B4F901201021EEA2CDE962
:1005200000210290EA484088123881B21F234FF61A
:10053000FF72002001F0A4F900200090E4484088F8
:10054000143883B2E24802881421002000F018FD1C
:100550003EBD0EB5E4A0FFF7B9FF01201021E8A2CF
:100560001F23CDE900210290DA021E21002001F0B4
:1005700087F901201021E5A21F23CDE90021029077
:10058000DA023C21002001F07BF901201021E3A2D6
:100590001F23CDE9002102904FF6E0725A2100207E
:1005A00001F06EF901201021E2A21F23CDE9002104
:1005B00002901A467821002001F062F940F2DC50E6
:1005C00002F02CFF40F2DC5002F028FF0EBD0EB509
:1005D000DEA0FFF77BFF4FF6FF700090BC4840881D
:1005E000143883B2BA4802881421002000F0C8FCF5
:1005F00001201021DAA2CDE900210290B449098836
:10060000323988B24FF6E0731F221E2101F0A7F89D
:100610004FF4FA7002F002FF00200090AC484088CE
:10062000143883B2AA4802881421002000F0A8FCE4
:1006300001201021CCA2CDE900210290A449098813
:10064000323988B24FF6E0731F221E2101F087F87D
:100650004FF4FA7002F0E2FE4FF4784000909C48AC
:100660004088143883B29A4802881421002000F090
:1006700087FC01201021BEA2CDE9002102909449FF
:100680000988323988B24FF6E0731F221E2101F02B
:1006900066F84FF4FA7002F0C1FE4FF4FC6000906F
:1006A0008B484088143883B289480288142100207E
:1006B00000F066FC01201021AEA2CDE900210290DD
:1006C00083490988323988B24FF6E0731F221E2110
:1006D00001F045F84FF4FA7002F0A0FE1F200090E0
:1006E0007B484088143883B279480288142100205E
:1006F00000F046FC01201021A0A2CDE900210290CB
:1007000073490988323988B24FF6E0734FF6FF72A9
:100710001E2101F024F84FF4FA7002F07FFE0EBDA6
:100720002DE9F843002497A0FFF7D0FE4FF6FF70A5
:10073000009067484088143883B2654802881421C5
:10074000002000F01DFC00BF48E0DFF884C1BCF8C9
:10075000025005EBD57C4FEA6C0CACF1500CC4EBAD
:100760000419CC440CF13C0C1FFA8CF3DFF860C187
:10077000BCF8006006EBD67C4FEA6C0CACF1500C78
:10078000C4EB0419CC440CF13C0C1FFA8CF2DFF8DA
:1007900040C1BCF8027007EBD77C4FEA6C0CACF19F
:1007A000500CC4EB0419CC441FFA8CF1DFF820C1C3
:1007B000BCF8008008EBD87C4FEA6C0CACF1500C14
:1007C000C4EB0419CC441FFA8CF000F066FC7348AB
:1007D00030F814003F490880601CC4B2052CB4DB1B
:1007E00040F2DC5002F01AFE4FF6FF7000903848DD
:1007F0004088143883B2364802881421002000F063
:10080000BFFB002448E0DFF8C8C0BCF8027007EB6B
:10081000D77C4FEA6C0CACF1500CC4EB0419CC44FF
:100820000CF13C0C1FFA8CF3DFF8A4C0BCF80050AC
:1008300005EBD57C4FEA6C0CACF1500CC4EB041901
:10084000CC440CF13C0C1FFA8CF2DFF884C0BCF8ED
:10085000028008EBD87C4FEA6C0CACF1500CC4EB76
:100860000419CC441FFA8CF1DFF864C0BCF80060B6
:1008700006EBD67C4FEA6C0CACF1500CC4EB0419BF
:10088000CC441FFA8CF000F028FC444830F81400E7
:1008900010490880601CC4B2052CB4DB40F2DC5067
:1008A00002F0BCFDBDE8F883F8B500243CA0FFF7DA
:1008B0000DFE4FF6FF70009005484088143883B253
:1008C000034802881421002000F05AFB00BF93E087
:1008D000700000201E000020D6D0BEB0D4B0B0E61C
:1008E000C8A8CBF9D3D02000D6D0BEB0D4B0B5E7DD
:1008F000D7D3D7DBBACFB2E2CAD4B3CCD0F20000A0
:10090000D6D0BEB0D4B0B5E7D7D30000D7DBBACFCE
:10091000B2E2CAD4B3CCD0F200000000332E3227AA
:1009200020494C4939333431203234305833323055
:1009300000000000D6D0BEB0D4B0B5E7D7D3203287
:100940003031342D30352D3035000000B2E2CAD4BC
:10095000313AB4BFC9ABCCEEB3E4B2E2CAD40000C2
:100960005768697465000000426C61636B000000A9
:1009700052656400477265656E000000426C7565E3
:1009800000000000B2E2CAD4323A475549BED8D07E
:10099000CECCEEB3E4B2E2CAD400000014000020D2
:1009A000B2E2CAD4333A475549BBADD4B2CCEEB368
:1009B000E4B2E2CAD40000000020F84B00905D8849
:1009C00005EBD5735B10323B04EBC40707EB041750
:1009D000D919F24B1E8806EBD6735B10503B04EB23
:1009E000C40707EB0417D819ED4B33F814201E2366
:1009F00000F0C4FB601CC4B2052CDDDB40F2DC500F
:100A000002F00CFD4FF6FF700090E4484088143867
:100A100083B2E24802881421002000F0B1FA0024D9
:100A20001FE00120DD4B00905D8805EBD5735B1066
:100A3000323B04EBC40707EB0417D919D74B1E88C8
:100A400006EBD6735B10503B04EBC40707EB0417AF
:100A5000D819D34B33F814201E2300F08FFB601CF1
:100A6000C4B2052CDDDB40F2DC5002F0D7FCF8BD4F
:100A700008B5CCA0FFF72AFD4FF47840CE49088096
:100A80001F20CE4908800020CDA30C221E210090FB
:100A90000A2000F04AFC0120D4A30C222D21009052
:100AA0000A2000F042FC0020DBA30C223C21009035
:100AB0000A2000F03AFC0020DFA310225021009011
:100AC0000A2000F032FC0120E6A3102264210090ED
:100AD0000A2000F02AFC0020EDA3102278210090CB
:100AE0000A2000F022FC4FF4966002F097FC08BD4B
:100AF0000EB5EFA0FFF7EAFC00201021F1A24FF69F
:100B0000E073CDE9002102901F221E210A2000F08F
:100B100026FE01201021F4A24FF6E073CDE900215A
:100B200002901F2232210A2000F019FE0120182114
:100B3000F2A24FF6E073CDE9002102901F22462178
:100B40000A2000F00CFE01202021F2A24FF6E073F3
:100B5000CDE9002102901F2264210A2000F0FFFD50
:100B60004FF4966002F05AFC0EBD0EB5EDA0FFF7F3
:100B7000ADFC4FF6FF70009088484088143883B26F
:100B8000864802881421002000F0FAF9EA4A1E2162
:100B9000084600F097FE01201021E8A24FF6E0730E
:100BA000CDE9002102901F224B212A2000F0D7FD21
:100BB000E14A1E215A2000F085FE01201021DFA20B
:100BC0004FF6E073CDE9002102901F224B216620F1
:100BD00000F0C5FDD84A1E21962000F073FE0120CA
:100BE0001021D6A24FF6E073CDE9002102901F221A
:100BF0004B21A22000F0B3FD4FF4966002F00EFCF2
:100C00000EBD08B500250026002702F008FB01F004
:100C100063FB01F0D5FECAA0FFF758FC01205F4935
:100C200000900988183988B2C9A31022002100F069
:100C30007CFB4FF478405949009009881E398AB2EC
:100C400056490988343988B21223022100F098F9F4
:100C50004FF478405849088083E101F061FB044675
:100C6000BC48416800208847BA48007D00F08000F9
:100C7000002879D0B748008A48490988884276DA3E
:100C8000B448408A45494988884270DAB148018AA7
:100C9000424800881838814222DDAE48408A102838
:100CA0001EDAA7A0FFF712FC01203C49009009883A
:100CB000183988B2A6A31022002100F036FB3E4866
:100CC000078000883549009009881E398AB2334967
:100CD0000988343988B21223022100F051F946E024
:100CE0009C48018A2D4800883C38814234DD99486F
:100CF000018A2A4800881E3881422DDA9548408AA8
:100D0000142829DA052096FBF0F100FB1160244934
:100D100031F810802149CDF8008009881E398AB247
:100D20001E490988343988B21223022100F028F9BB
:100D30003046711C8EB2052190FBF1F201FB1200CE
:100D4000174931F810001C490880084607880A2016
:100D500002F064FB0BE007E07E4A518A108A164AD3
:100D6000128801F05AFC02E00A2002F057FB012C25
:100D700008D14FF6FF7000F06BFE01F0DAFC70A0B6
:100D8000FFF7A4FB681CC5B2142D06D100257248DC
:100D9000006808B90120E2E0E0E0E2E07000002035
:100DA00014000020B2E2CAD4343AD3A2CEC4CFD4C5
:100DB000CABEB2E2CAD400001E00002020000020FB
:100DC000365831323A6162636465666768696A6B96
:100DD0006C6D6E6F707172737475767778797A3026
:100DE0003132333435363738390000003658313235
:100DF0003A4142434445464748494A4B4C4D4E4F81
:100E0000505152535455565758595A303132333441
:100E10003536373839000000365831323A7E2140B5
:100E20002324255E262A28295F2B7B7D3A3C3E3FE2
:100E30002F7C2D2B2E000000385831363A6162632A
:100E40006465666768696A6B6C6D6E6F70717273EA
:100E50007475767778797A3031323334353637387D
:100E600039000000385831363A414243444546473C
:100E700048494A4B4C4D4E4F50515253545556577A
:100E800058595A303132333435363738390000004A
:100E9000385831363A7E21402324255E262A2829D7
:100EA0005F2B7B7D3A3C3E3F2F7C2D2B2E0000009C
:100EB000B2E2CAD4353AD6D0CEC4CFD4CABEB2E29A
:100EC000CAD4000031365831363AD6D0BEB0D4B08C
:100ED000B5E7D7D3BCBCCAF5D3D0CFDEB9ABCBBE58
:100EE000BBB6D3ADC4FA000031365831363A576537
:100EF0006C636F6D65D6D0BEB0D4B000323458325A
:100F0000343AC9EEDBDACAD0D6D0CEC4B2E2CAD403
:100F10000000000033325833323AD7D6CCE5B2E283
:100F2000CAD40000B2E2CAD4363ACDBCC6ACCFD4E3
:100F3000CABEB2E2CAD40000C85200085151000033
:100F4000B2E2CAD4373A546F756368B2E2CAD400C9
:100F50005253540024000020A48242420020014940
:100F600008607AE6A482424270B505460E461446F1
:100F70003146284600F010FD204600F0FAFC70BD16
:100F80002DE9F84F06460F4614461D46DDF8289019
:100F9000A01B401C1FFA80FAE81B401C1FFA80FBB4
:100FA0000BFB0AF00090681E83B2601E82B23946C5
:100FB000304600F027FD4FF0000805E04FF0D84024
:100FC000A0F8809008F1010800988045F6D3F94810
:100FD0004088401E83B2F7480088401E82B200213C
:100FE000084600F00FFDBDE8F88F2DE9FF4F85B0F2
:100FF00081468A460020049003900798A0EB0905DB
:101000000898A0EB0A06CDF80890CDF804A0002DB2
:1010100001DD012705E00DB9002702E04FF0FF37A1
:101020006D42002E02DD4FF0010806E016B94FF0C8
:10103000000802E04FF0FF387642B54201DD2C4651
:1010400000E034464FF0000B21E0019A91B2029A81
:1010500090B200F0CBFC04982844049003983044EC
:1010600003900498A04205DD0498001B04900298A8
:10107000384402900398A04205DD0398001B0390BA
:101080000198404401900BF101001FFA80FB601CA5
:101090008345DADD09B0BDE8F08F2DE9F041044663
:1010A0000D4616461F462B46324629462046FFF778
:1010B0009CFF3B46224629462046FFF796FF3B46CB
:1010C000324639462046FFF790FF3B4632462946D6
:1010D0003046FFF78AFFBDE8F081F8B504460D46BB
:1010E00016461F46B44800883B46324629460090C3
:1010F0002046FFF745FFF8BD2DE9F04104460D46B7
:1011000016461F46DDF81880EA1991B2A21990B26E
:101110004246FFF729FFEA1991B2A21B90B242465C
:10112000FFF722FFEA1B91B2A21990B24246FFF7E5
:101130001BFFEA1B91B2A21B90B24246FFF714FFBD
:10114000AA1991B2E21990B24246FFF70DFFAA190F
:1011500091B2E21B90B24246FFF706FFAA1B91B282
:10116000E21990B24246FFF7FFFEAA1B91B2E21BC2
:1011700090B24246FFF7F8FEBDE8F0812DE9FF4F3F
:1011800081B0824617469846DDF838B000244546BF
:101190004FEA4800C0F10306BBF1000F1FD01BE06F
:1011A000A14608E04B462246009750460299FFF7B9
:1011B000A3FF09F10109A945F4DD002E04DA04209A
:1011C00000FB0460861D06E0601B042101FB00603B
:1011D00000F10A066D1E641CAC42E1DD18E015E06A
:1011E0002B462246009750460299FFF785FF002EB6
:1011F00004DA042000FB0460861D06E0601B042165
:1012000001FB006000F10A066D1E641CAC42E7DDC4
:1012100005B0BDE8F08F2DE9FF4F83B081468A46C7
:101220009346DDE91064644800880290A6F120002E
:10123000C6B204EBD47009EB6000401E82B20AEB28
:101240000400401E83B251464846019400F0DAFB88
:10125000129850BB002525E00C2C07D106EB460068
:10126000564901EB800010F8058004E0544800EB7B
:10127000061010F8058000270DE008F0010018B1F5
:10128000584600F076FB02E0069800F072FB4FEA49
:101290006808781CC7B204EBD471B7EB610FECDBC4
:1012A000681CC5B2A542D7DB2DE0002529E00C2C37
:1012B00007D106EB4600414901EB800010F805809C
:1012C00004E03F4800EB061010F80580002711E00D
:1012D0003948A0F800B008F0010038B10AEB050267
:1012E00091B209EB070290B200F080FB4FEA680868
:1012F000781CC7B204EBD471B7EB610FE8DB681C54
:10130000C5B2A542D3DB2C49029808802948408801
:10131000401E83B227480088401E82B20021084642
:1013200000F070FB07B0BDE8F08F2DE9FE430646E4
:101330000F4615461C46DDF828801DE01D48008834
:10134000401EB04204DB1B484088401EB84201DA10
:10135000BDE8FE8320788DE821011A4803881648ED
:10136000028839463046FFF756FF284605EBD07114
:1013700006EB61018EB2641C20787E2802DC2078A6
:101380002028DBDA00BFE3E710B50246012000E0C9
:1013900050430B1EA1F10104E1B2F9D110BD2DE9BA
:1013A000FF4F83B0074691461E46109C4FF0000A3F
:1013B00000254DE0700000201E000020485F00085E
:1013C000BC63000820000020701B401EC1B20A2030
:1013D000FFF7DAFFB9FBF0F00A21B0FBF1F201FBF5
:1013E0001208BAF1000F1BD1701EA84218DDB8F127
:1013F000000F13D100202021A346CDE90014029054
:1014000004EBDB71491001FB057188B2FC490B88C4
:10141000FC490A880499FFF7FEFE17E04FF0010A25
:10142000002108F13000C0B2A346CDE9014100908F
:1014300004EBDB71491001FB057188B2F0490B88A0
:10144000F0490A880499FFF7E6FE00BF681CC5B2A0
:10145000B542B9DB07B0BDE8F08F2DE9FC5F05466A
:10146000884691469A46DDF830B000952B200190D1
:1014700000245FE004EB0410E34911F810009BF82E
:101480000010884253D104EB0410DF4901EB400007
:1014900040789BF80110884249D108F10F0083B2CF
:1014A00005F10F0082B24146284600F0ABFA002653
:1014B0003BE0002734E00D9890B904EB0410D249CA
:1014C00001EB4000801C805D80213941084018B14B
:1014D000484600F04EFA21E0504600F04AFA1DE07E
:1014E000C848A0F8009004EB0410C74901EB400085
:1014F000801C805D80213941084018B14146284652
:1015000000F074FA681C85B20098281A102805D1DA
:10151000009D08F101001FFA80F803E0781CC7B2B3
:10152000082FC8DB00BF701CC6B2202EC1DB00BF75
:10153000601C84B2019884429CDBB4484088401E01
:1015400083B2B2480088401E82B20021084600F0F3
:1015500059FABDE8FC9F2DE9FC5F05468846914697
:101560009A46DDF830B0009507200190002467E02E
:1015700004EB840000EB4410A54911F810009BF81F
:101580000010884259D104EB840000EB4410A049BC
:1015900001EB400040789BF8011088424DD108F1E2
:1015A000170083B205F1170082B24146284600F0C9
:1015B00029FA00263FE0002738E00D98A0B904EB97
:1015C000840000EB4410924901EB4000801C805DD8
:1015D00080213941084018B1484600F0CAF923E09B
:1015E000504600F0C6F91FE08648A0F8009004EBD2
:1015F000840000EB4410864901EB4000801C805DB4
:1016000080213941084018B14146284600F0EEF9E2
:10161000681C85B20098281A182805D1009D08F189
:1016200001001FFA80F803E0781CC7B2082FC4DB62
:1016300000BF701CC6B2482EBDDB00BF601C84B268
:101640000198844294DB71484088401E83B26F4801
:101650000088401E82B20021084600F0D3F9BDE8A0
:10166000FC9F2DE9FC5F0546884691469A46DDF8C9
:1016700030B000950420019000245FE004EB84105A
:10168000644911F810009BF80010884253D104EB14
:101690008410604901EB400040789BF801108842BB
:1016A00049D108F11F0083B205F11F0082B2414603
:1016B000284600F0A7F900263BE0002734E00D980B
:1016C00090B904EB8410534901EB4000801C805D0D
:1016D00080213941084018B1484600F04AF921E01C
:1016E000504600F046F91DE04648A0F8009004EB93
:1016F0008410484901EB4000801C805D8021394105
:10170000084018B14146284600F070F9681C85B2BF
:101710000098281A202805D1009D08F101001FFA21
:1017200080F803E0781CC7B2082FC8DB00BF701C2C
:10173000C6B2802EC1DB00BF601C84B20198844217
:101740009CDB32484088401E83B230480088401EEF
:1017500082B20021084600F055F9BDE8FC9F2DE952
:10176000FF4F83B0064688469146DDE91147109D3C
:10177000B2464FF0000B7DE0BBF1000F4CD104EB03
:10178000D471224A1288A2EB6101B14204DB1F49E5
:101790004988091B414502DA07B0BDE8F08F287877
:1017A000802802DD4FF0010B64E028780D2806D177
:1017B00008EB04001FFA80F856466D1C1EE0102C42
:1017C0000DDD102128788DE883004A4641463046D9
:1017D000069BFFF720FD06F1080086B20EE0287890
:1017E0008DE891004A4641463046069BFFF713FDBF
:1017F000204604EBD07106EB61018EB26D1C39E01E
:10180000200000201E000020AC69000870000020AD
:10181000626F00086871000841480088001BB042F0
:1018200004DB3F484088001B404500DAB4E74FF036
:10183000000B202C08D1CDE900574A4641463046DE
:10184000069BFFF70EFF12E0182C08D1CDE90057D8
:101850004A4641463046069BFFF77DFE07E0CDE94C
:1018600000574A4641463046069BFFF7F6FDAD1C41
:10187000301986B2287800287FF47EAF00BF8BE74E
:101880002DE9FF4F83B004460F469046DDE9119ADB
:10189000109D284603F0A4F986B221490988A1EBDE
:1018A000C60000EBD071C1F34F0B04EB0B0188B203
:1018B0008DE8200642463946069BFFF750FF07B0E9
:1018C000BDE8F08F2DE9F04706460F46154607F1B3
:1018D000270083B206F1270082B23946304600F075
:1018E00091F800240AE015F8149005EB440090F8F4
:1018F000018049EA082000F038F8641CB4F5C86F8C
:10190000F1DB07484088401E83B205480088401E2E
:1019100082B20021084600F075F8BDE8F0870000AB
:10192000700000201CB50121202002F0D5FC4FF4EE
:10193000C060009001208DF8040000208DF80600A2
:1019400003208DF8050001208DF807006946044842
:1019500001F040FF4FF4C061014801F0B7FF1CBD2A
:1019600000140240FE4908807047FD49891C088028
:10197000704700B502461046FFF7F7FF00BDF84A72
:1019800010804FF0D842A2F88010704700B5F5499A
:101990000889FFF7E7FF00BD00B502460B46F14995
:1019A0004889FFF7DFFF1012FFF7DFFFD0B2FFF724
:1019B000DCFF511C0812FFF7D8FF511C88B2FFF75B
:1019C000D4FFE8498889FFF7CDFF1812FFF7CDFF54
:1019D000D8B2FFF7CAFF591C0812FFF7C6FF591CFF
:1019E00088B2FFF7C2FFFFF7D1FF00BD30B5044654
:1019F0000D4629462046FFF7CFFFDB480088FFF75A
:101A0000B4FF30BD30B504460D46D6494889FFF7CE
:101A1000A9FF2012FFF7A9FFE0B2FFF7A6FF1012FF
:101A2000FFF7A3FFD0B2FFF7A0FFCE498889FFF7E9
:101A300099FF2812FFF799FFE8B2FFF796FF1812F7
:101A4000FFF793FFD8B2FFF790FFFFF79FFF30BD7E
:101A500030B504460025C3484088401E83B2C148C3
:101A60000088401E82B200210846FFF7CBFF00BF6E
:101A700003E0BB48801C04806D1CB5F5163FF8D30D
:101A800030BD00B52A20B74948812B2088812C2001
:101A90000881002088714FF4A07008804FF4F07026
:101AA0004880C8213620FFF76AFF00BD00B5A1B00D
:101AB0000020209001217A2002F00EFC012108462E
:101AC00002F042FC4FF400401E9001208DF87C0093
:101AD00000208DF87E0002208DF87D0001208DF819
:101AE0007F001EA9A14801F075FE4CF233701E90D4
:101AF00002208DF87C0000208DF87E0003208DF8F8
:101B00007D0001208DF87F001EA9994801F062FE3A
:101B10004FF680701E9002208DF87C0000208DF81A
:101B20007E0003208DF87D0001208DF87F001EA926
:101B3000904801F04FFE4FF480501E9002208DF827
:101B40007C0000208DF87E0003208DF87D000120B0
:101B50008DF87F001EA9884801F03CFE4FF48050AC
:101B60001E9002208DF87C0000208DF87E0003205E
:101B70008DF87D0001208DF87F001EA97F4801F0BF
:101B800029FE0C2200217A4801F0AFFE0C2201212F
:101B9000774801F0AAFE0C220421754801F0A5FE49
:101BA0000C220521724801F0A0FE0C220821704889
:101BB00001F09BFE0C2209216D4801F096FE0C22DB
:101BC0000A216B4801F091FE0C220E21684801F0B9
:101BD0008CFE0C220F21664801F087FE0C220721A3
:101BE000644801F082FE0C220821624801F07DFE6B
:101BF0000C2209215F4801F078FE0C220A215D4881
:101C000001F073FE0C220B215A4801F06EFE0C22EB
:101C10001146584801F069FE0C220D21554801F08B
:101C200064FE0C220E21534801F05FFE0C220F21AE
:101C3000504801F05AFE0C2211464F4801F055FE63
:101C40000C2211464D4801F050FE0F200890002054
:101C500009903C200A9000200B900C900D900E9063
:101C60000920019000200290082003900020049099
:101C700005900690079006200F900020109011907C
:101C80001020129000201390159014901690179029
:101C90004FF480501890002019904FF480401A9013
:101CA00000201B9008A81C9001A81D900FA801F00F
:101CB00070FE0121062001F0F7FEF120FFF752FE31
:101CC0003620FFF752FE0420FFF74FFE0020FFF7FB
:101CD0004CFE3C20FFF749FE0F20FFF746FE8F2009
:101CE000FFF743FEF220FFF73DFE1820FFF73DFE11
:101CF000A320FFF73AFE1220FFF737FE0220FFF77E
:101D000034FEB220FFF731FE1220FFF72EFEFF2037
:101D1000FFF72BFE1020FFF728FE0020FFF725FE1F
:101D2000F820FFF71FFE2120FFF71FFE0420FFF71A
:101D30001CFEF920FFF716FE0020FFF716FE082014
:101D4000FFF713FEE020FFF70DFE0020FFF70DFE6A
:101D50001020FFF70AFE0F20FFF707FE0E200FE00E
:101D60007E00006C700000201E0000200004024075
:101D7000000C024000100240001402400018024013
:101D8000FFF7F3FD1120FFF7F0FD0A20FFF7EDFD4F
:101D90004420FFF7EAFD7720FFF7E7FD3820FFF743
:101DA000E4FD0820FFF7E1FD1320FFF7DEFD05202D
:101DB000FFF7DBFD0B20FFF7D8FD0220FFF7D5FD75
:101DC0000020FFF7D2FDE120FFF7CCFD0F20FFF749
:101DD000CCFD3B20FFF7C9FD3920FFF7C6FD0D20E4
:101DE000FFF7C3FD0F20FFF7C0FD0520FFF7BDFD86
:101DF0005320FFF7BAFD4320FFF7B7FD3D20FFF763
:101E0000B4FD0520FFF7B1FD0F20FFF7AEFD042064
:101E1000FFF7ABFD2320FFF7A8FD1F20FFF7A5FD6F
:101E20000F20FFF7A2FD3620FFF79CFD0820FFF7EB
:101E30009CFD3A20FFF796FD5520FFF796FDB12057
:101E4000FFF790FDB020FFF790FD1120FFF78DFD0B
:101E5000B420FFF787FD0220FFF787FDB620FFF7CC
:101E600081FD0020FFF781FD4220FFF77EFD3B2032
:101E7000FFF77BFDB720FFF775FDC620FFF775FD67
:101E8000C020FFF76FFD0520FFF76FFD0520FFF76E
:101E90006CFDC120FFF766FD4120FFF766FD0020C5
:101EA000FFF763FDC220FFF75DFD2220FFF75DFD18
:101EB000C520FFF757FD0020FFF757FD3120FFF742
:101EC00054FD8020FFF751FD1120FFF74BFD7820D6
:101ED00001F0A4FA2920FFF745FDFFF7D2FD01200C
:101EE000034908604FF6FF70FFF7B2FD21B000BD57
:101EF000BC82404210B500F0BBF810BD70B504467E
:101F0000002600F0CEF82546E11704EB1161091216
:101F1000A02202EB4101C8B200F073F900F002F90F
:101F2000E11704EB11610912A4EB0121C8B200F022
:101F300068F900F0F7F800F0B4F8A12000F061F9BA
:101F400000F0F0F8002000F090F9064600F0C9F823
:101F5000304670BD70B504460E4600F0A2F8254626
:101F6000E11704EB11610912A02202EB4101C8B292
:101F700000F047F900F0D6F8E11704EB11610912FF
:101F8000A4EB0121C8B200F03CF900F0CBF83046D8
:101F900000F037F900F0C6F800F0A3F842F2107034
:101FA00001F0F4F970BD2DE9F04105460E461746E3
:101FB000002409E0E20026FA02F2D1B22A1990B216
:101FC000FFF7C8FF601CC4B2BC42F3DBBDE8F08180
:101FD0002DE9F04107460C460026002509E03602AF
:101FE0003919491B491E88B2FFF788FF0644681C4F
:101FF000C5B2A542F3DB3046BDE8F08110B5FF2045
:10200000FFF77CFF0446552C01D1002010BD55215F
:10201000FF20FFF79FFFFF20FFF770FF0446552CBE
:1020200001D10020F2E70120F0E770B506460C462A
:10203000154608E03046721C96B2FFF75FFF04F8C1
:10204000010B681E85B2002DF4D170BD70B5054638
:102050000C46164606E021782846FFF77BFF681CF1
:1020600085B2641C301EA6F101018EB2F3D170BDA1
:102070001CB50121022002F02FF94FF440700090AE
:1020800001208DF8040000208DF8060002208DF854
:10209000050001208DF8070069468C4801F09AFB85
:1020A0001CBD10B58948006820F4402087490860AD
:1020B0000846006840F480200860012084490860D8
:1020C0008449C1F8A002042001F060F90020804991
:1020D0000860042001F05AF900207E49C1F8A002EE
:1020E00010BD10B57948006820F440207749086099
:1020F0000846006840F48020086000207449091FE9
:1021000008607449C1F8A402042001F03FF90120DD
:102110006F49091F08606F49C1F8A402042001F04B
:1021200035F910BD10B500246848006820F440203F
:102130006649086008460068086001206449086034
:1021400001F024F901206349C1F8A00201F01EF951
:1021500007E0601CC4B2FA2C03DDFFF7C2FF0120C8
:1021600010BD5B48803800680028F2D15849091F2B
:10217000086000BFF4E710B500205549091F08604A
:102180005248006820F44020504908600846006822
:1021900040F48020086000204E49C1F8A4020220CB
:1021A00001F0F4F801204A49091F0860022001F0FB
:1021B000EDF800204749C1F8A00210BD10B500207D
:1021C0004349091F08604148006820F440203F4906
:1021D00008600846006840F48020086001203D49FE
:1021E000C1F8A402022001F0D1F801203849091FEA
:1021F0000860022001F0CAF800203649C1F8A002A8
:1022000010BD70B504463148006820F440202F49C5
:1022100008600846006840F48020086000202C49CF
:10222000091F086000251DE0E00918B101202849B8
:10223000086002E00020264908606006040E0220C3
:1022400001F0A4F801202249091F0860022001F0D2
:102250009DF800201F49C1F8A002022001F096F865
:10226000681CC5B2082DDFDB70BD70B505460024C3
:102270001648006820F440201449086008460068A9
:102280000860002617E000201149091F086002209D
:1022900001F07CF801200F49C1F8A0026006040E8D
:1022A0000B488038006808B1601CC4B2012001F0FE
:1022B0006DF8701CC6B2082EE5DB15B9FFF77EFF7E
:1022C00001E0FFF758FF204670BD00000004024007
:1022D000A4824042008040421CB50121112001F03F
:1022E000FBFF1C20009000208DF8040002208DF8D8
:1022F000050001208DF807006946254801F06AFABB
:102300000120009000208DF8040002208DF80500C7
:1023100001208DF8070069461E4801F05BFA1CBDDC
:1023200010B510211A4801F0B7FA78B10821184801
:1023300001F0B2FA50B10421154801F0ADFA28B10C
:102340000121144801F0A8FA01281FD10A2001F048
:1023500065F810210E4801F09FFA08B9012010BD60
:1023600008210B4801F098FA08B90220F7E7042188
:10237000074801F091FA08B90320F0E70121054868
:1023800001F08AFA012801D10420E8E70020E6E7FD
:102390000010024000000240002100BF14E000F0E5
:1023A00080021AB10122FE4B1A6002E00022FC4BAF
:1023B0001A604206100E0022FA4B1A600122FA4BF4
:1023C000C3F880224A1CD1B20829E8DB704770B5F7
:1023D0000646002500240020F2490860F349C1F8B0
:1023E000AC02F34908603046FFF7D6FF062000F044
:1023F000CDFF0020EC49C1F88002012000F0C6FFAB
:102400000120E84908600020E749C1F8800200BFC8
:1024100012E04FF6FF7000EA44040020E149086032
:102420000120E149C1F88002DE487838006808B12F
:10243000601C84B2681CC5B2102DEADB2411012097
:10244000DB490860204670BD2DE9FE438046002729
:10245000002406E04046FFF7BAFF2DF81400601C88
:1024600084B2052CF6DB002416E0601C85B20FE078
:102470003DF814003DF81510884207DD3DF8146062
:102480003DF815002DF814002DF81560681C85B274
:10249000052DEDDB601C84B2042CE6DB0027012453
:1024A00005E03DF81400384487B2601C84B2042C67
:1024B000F7DB032097FBF0F086B23046BDE8FE83E1
:1024C0002DE9F04104460D46BA480078FFF7BCFFFD
:1024D0000646B9480078FFF7B7FF074626802F80E9
:1024E0000120BDE8F0817FB504460D4602A903A88E
:1024F000FFF7E6FF064616B9002004B070BD694636
:1025000001A8FFF7DDFF06460EB90020F5E7BDF88C
:102510000400BDF80C10884206DCBDF80C10BDF8B4
:102520000400323081420CDBBDF80C00BDF8041011
:10253000884236DCBDF80410BDF80C003230814210
:102540002FDABDF80000BDF80810884206DCBDF89F
:102550000810BDF80000323081420CDBBDF80800E5
:10256000BDF8001088421CDCBDF80010BDF8080062
:102570003230814215DABDF80C10BDF804208818FD
:1025800000EBD071C1F34F012180BDF80810BDF8F8
:102590000020881800EBD071C1F34F012980012081
:1025A000ABE70020A9E7F8B504460D461646834878
:1025B000068004F10D018AB2193988B22B462946EA
:1025C000FEF713FD05F10D0083B2193881B22246E2
:1025D0002046FEF70AFD6A1C91B2621C90B2FFF71A
:1025E00005FA6A1C91B2621E90B2FFF7FFF96A1EEB
:1025F00091B2621C90B2FFF7F9F96A1E91B2621EA5
:1026000090B2FFF7F3F90020062300906B48028890
:1026100029462046FEF7B2FDF8BD70B504460D46CA
:1026200016466648068029462046FFF7DFF9611CFA
:1026300088B22946FFF7DAF9681C81B22046FFF715
:10264000D5F96A1C91B2621C90B2FFF7CFF970BD48
:1026500010B5044653487C38006800284BD124B19B
:102660005749881EFFF73FFF34E05549881EFFF7A2
:102670003AFF78B352481238B0F9200000EE100A41
:10268000B8EEC00A4E48123890ED061A008A00EEE5
:10269000900AF8EE600A01EE200ABCEEC00A10EEC5
:1026A000100A4749123908820846B0F9220000EEA4
:1026B000100AB8EEC00A084690ED071A408A00EEEC
:1026C000900AF8EE600A01EE200ABCEEC00A10EE95
:1026D000100A48823A481238007D00F0800010BB92
:1026E000C0203749123908750846008A8881084693
:1026F000408AC88117E032481238007D00F080001F
:1027000040B12F481238007D20F080002C4912394A
:10271000087508E000202A4912398881C8814FF6DF
:10272000FF700882488226481238007D00F0800041
:1027300010BD10B52248123890ED060ADFED210ACF
:1027400020EE200ABDEEC00A10EE104A04222146F7
:102750002820FFF728FC1A48123890ED070ADFED11
:10276000190A20EE200ABDEEC00A10EE104A04221B
:1027700021462C20FFF717FC11481238B0F9201021
:1027800002223020FFF70FFC0D481238B0F922105A
:1027900002223220FFF707FC0948123814E000003B
:1027A000AC824242808240420080404200804242ED
:1027B000B40241424C0000204D0000201E000020C9
:1027C0003600002020BCBE4C90F824103420FFF7C7
:1027D000C1FB0A2421463520FFF7BCFB10BD10B514
:1027E0003520FFF78BFB04460A2C46D10421282014
:1027F000FFF7EEFB044600EE104AB8EEC00A5FEDAC
:102800000F0A80EE201AFE4880ED061A04212C20C3
:10281000FFF7DEFB044600EE104AB8EEC00A5FED9B
:10282000170A80EE201AF64880ED071A02213020A0
:10283000FFF7CEFB00B2F249088402213220FFF7F5
:10284000C7FB00B2EE4948843420FFF757FBEC4940
:1028500081F82400084690F8240030B19020E9491E
:102860000870D020E849087005E0D020E5490870DC
:102870009020E5490870012010BD0020FCE72DE9FB
:10288000F84F04460D4617461E46DDE90CABDDE960
:102890000A894FF47840DD4908800120DCA310222A
:1028A000A02100902820FEF740FD0120D9A310228E
:1028B000A02100907820FEF738FD0120D6A3102239
:1028C000B42100902820FEF730FD0120D3A3102270
:1028D000B42100907820FEF728FD0120D0A310221B
:1028E000C82100902820FEF720FD0120CDA3102252
:1028F000C82100907820FEF718FD0120CAA31022FD
:10290000DC2100902820FEF710FD0120C7A3102233
:10291000DC2100907820FEF708FD0120C4A31022DE
:10292000F02100902820FEF700FD1020042322460D
:10293000A02100904020FEF732FD102004232A46FB
:10294000A02100909020FEF72AFD102004233A4693
:10295000B42100904020FEF722FD102004233246CF
:10296000B42100909020FEF71AFD10200423424667
:10297000C82100904020FEF712FD102004234A4693
:10298000C82100909020FEF70AFD10200423524633
:10299000DC2100904020FEF702FD102004235A465F
:1029A000DC2100909020FEF7FAFC10200090A24855
:1029B0000188032360200E9AFEF7F1FCBDE8F88F32
:1029C0002DE9F0432DED068B89B04FF00008C1468C
:1029D00000BF1F208D4908804FF6FF70974908807F
:1029E000FFF736F84FF47840884908804FF6FF70BB
:1029F000FFF72EF8002085490880012090A31022BF
:102A0000282100900A20FEF790FC012094A31022B8
:102A1000382100900A20FEF788FC012099A310229B
:102A2000482100900A20FEF780FC01209DA310227F
:102A3000582100900A20FEF778FC4FF478421421C8
:102A40000846FFF7B0FD00206D4908759FED9C0A10
:102A5000084680ED060ADEE36948416801208847A0
:102A60006748007D00F0C00040286FD14FF000099A
:102A70006348007D20F04000614908750846008ADF
:102A800005A921F828005E48408A01EB88014880AA
:102A900008F1010000F0FF08B8F1010F09D0B8F10A
:102AA000020F16D0B8F1030F26D0B8F1040F0FD1E2
:102AB00038E04FF6FF7214210846FFF774FD5E49B7
:102AC0000988143988B24FF478421421FFF76BFD5E
:102AD00092E359490988143988B24FF6FF721421DC
:102AE000FFF761FD54484088143881B24FF47842B2
:102AF0001420FFF758FD7FE34F484088143881B217
:102B00004FF6FF721420FFF74EFD4B4A5288143ADD
:102B100091B2494A1288143A90B24FF47842FFF7C2
:102B200042FD69E3BDF81410BDF81820881A00288A
:102B300001DB014600E041420C46BDF81620BDF81D
:102B40001A10501A002802DB014601E055E3414209
:102B50000D4664436D43601902F09BF941EC1A0B7A
:102B6000B0EE4A0AF0EE6A0A02F016F9B0EE409AA8
:102B7000F0EE609A51EC190B02F05EF986B2BDF8E6
:102B80001C10BDF82020881A002801DB014600E057
:102B900041420C46BDF81E20BDF82210501A0028F4
:102BA00001DB014600E041420D4664436D4360197C
:102BB00002F06FF941EC1A0BB0EE4A0AF0EE6A0A25
:102BC00002F0EAF8B0EE409AF0EE609A51EC190B80
:102BD00002F032F987B200EE106AF8EE400A00EE19
:102BE000107AB8EE400A80EE801AB0EE418A18EEF4
:102BF000100A02F0F3FA41EC190B9FED320B65E07D
:102C0000240000204C0000204D0000201E00002069
:102C100078313A0079313A0078323A0079323A0024
:102C200078333A0079333A0078343A0079343A000C
:102C30006661632069733A00700000202000002064
:102C4000506C6561736520757365207468652073C9
:102C500074796C757320636C69636B2074686500AC
:102C600063726F7373206F6E207468652073637274
:102C700065656E2E5468652063726F737320776983
:102C80006C6C0000616C77617973206D6F766520E4
:102C9000756E74696C207468652073637265656E07
:102CA0002000000061646A7573746D656E7420693C
:102CB0007320636F6D706C657465642E0000000096
:102CC00000000000666666666666EE3F53EC102BF9
:102CD00002F0F2F80ED318EE100A02F07FFA41EC7F
:102CE000190B9FEDFE0B53EC102B02F075F901D37D
:102CF00006B1A7BB4FF00008FA4A5288143A91B2C5
:102D0000F84A1288143A90B24FF6FF72FFF74BFC64
:102D10004FF4784214210846FFF745FC9FEDF20A74
:102D200028EE000ABCEEC00A10EE100A81B2BDF80F
:102D30002220BDF82000BDF81E30CDE90130CDE9DC
:102D40000321BDF81C000090BDF81A30BDF8182012
:102D5000BDF81610BDF81400FFF791FD5BE2FFE728
:102D6000BDF81410BDF81C20881A002801DB0146AC
:102D700000E041420C46BDF81620BDF81E10501A66
:102D8000002801DB014600E041420D4664436D43EB
:102D9000601902F07EF841EC1A0BB0EE4A0AF0EE30
:102DA0006A0A01F0F9FFB0EE409AF0EE609A51EC39
:102DB000190B02F041F886B2BDF81810BDF82020BA
:102DC000881A002801DB014600E041420C46BDF8AC
:102DD0001A20BDF82210501A002801DB014600E03D
:102DE00041420D4664436D43601902F052F841ECD4
:102DF0001A0BB0EE4A0AF0EE6A0A01F0CDFFB0EE0F
:102E0000409AF0EE609A51EC190B02F015F887B277
:102E100000EE106AF8EE400A00EE107AB8EE400AB2
:102E200080EE801AB0EE418A18EE100A02F0D6F950
:102E300041EC190B1FED5D0B53EC102B02F03CF82D
:102E40000CD318EE100A02F0C9F941EC190B9FEDF2
:102E5000A30B53EC102B02F0BFF834D24FF0000854
:102E6000A04A5288143A91B29E4A1288143A90B2FB
:102E70004FF6FF72FFF797FB4FF478421421084694
:102E8000FFF791FB9FED980A28EE000ABCEEC00AFE
:102E900010EE100A80B2BDF82210BDF82020BDF857
:102EA0001E30CDE90132CDE90310BDF81C000090C1
:102EB000BDF81A30BDF81820BDF81610BDF8140082
:102EC000FFF7DDFCA7E1BDF81810BDF81C20881A3B
:102ED000002801DB014600E041420C46BDF81A2003
:102EE000BDF81E10501A002801DB014600E04142E7
:102EF0000D4664436D43601901F0CBFF41EC1A0BA2
:102F0000B0EE4A0AF0EE6A0A01F046FFB0EE409ACF
:102F1000F0EE609A51EC190B01F08EFF86B2BDF80D
:102F20001410BDF82020881A002801DB014600E0BB
:102F300041420C46BDF81620BDF82210501A002858
:102F400001DB014600E041420D4664436D436019D8
:102F500001F09FFF41EC1A0BB0EE4A0AF0EE6A0A4C
:102F600001F01AFFB0EE409AF0EE609A51EC190BA6
:102F700001F062FF87B200EE106AF8EE400A00EE40
:102F8000107AB8EE400A80EE801AB0EE418A18EE50
:102F9000100A02F023F941EC190B1FEDB60B53ECAC
:102FA000102B01F089FF0CD318EE100A02F016F96D
:102FB00041EC190B9FED490B53EC102B02F00CF870
:102FC00034D24FF00008474A5288143A91B2454A29
:102FD0001288143A90B24FF6FF72FFF7E4FA4FF4FA
:102FE000784214210846FFF7DEFA9FED3F0A28EEEB
:102FF000000ABCEEC00A10EE100A81B2BDF8222011
:10300000BDF82000BDF81E30CDE90130CDE9032127
:10301000BDF81C000090BDF81A30BDF81820BDF8AE
:103020001610BDF81400FFF72AFCF4E0BDF81800F4
:10303000BDF81410401A00EE100AF8EEC00A294834
:103040000088283800EE100AB8EEC00A80EE201A78
:10305000264880ED061ABDF81800BDF81410084483
:1030600000EE100AF8EEC00A1E48008800EE100AB2
:10307000B8EE400A1D4890ED061A01EE600AF0EE27
:10308000000A80EE201ABDEEC10A10EE100A00B24E
:1030900016490884BDF81E00BDF81610401A00EE4F
:1030A000100AF8EEC00A0F484088283800EE100ACF
:1030B000B8EEC00A80EE201A0C4880ED071ABDF861
:1030C0001E00BDF81610084400EE100AF8EEC00A03
:1030D0000448408800EE100A0AE00000CDCCCCCCB9
:1030E000CCCCF03F700000200000C842240000203B
:1030F000B8EE400A854890ED071A01EE600AF0EE3E
:10310000000A80EE201ABDEEC10A10EE100A00B2CD
:103110007E4948840A4692ED060ABDEEC00A10EECA
:10312000101A002901DB0A4600E04A42022A0DDC9F
:10313000764A92ED070ABDEEC00A10EE100A00288A
:1031400001DB024600E04242022A37DD4FF0000870
:103150006F4A5288143A91B26D4A1288143A90B26A
:103160004FF6FF72FFF71FFA4FF47842142108461A
:10317000FFF719FA012067A310221A2100902820D6
:10318000FEF7D3F8614890F8240008B9012000E068
:1031900000205E4981F82400084690F8240030B1F0
:1031A000902061490870D0206049087005E0D02067
:1031B0005D49087090205D4908702CE01F205C4933
:1031C00008804FF6FF70FEF743FC012059A3102240
:1031D0006E2100902320FEF7A8F84FF47A7000F0DB
:1031E0001DF9FFF7A6FA4FF6FF70FEF731FC09B0A4
:1031F000BDEC068BBDE8F08300BF0A2000F00EF99D
:1032000009F101001FFA80F9B9F57A7F02DDFFF7B5
:10321000E6FA01E000BF1FE400BF00BFE7E71CB50E
:103220000121262001F058F80620009000208DF89A
:1032300004008DF8060002208DF8050001208DF8AD
:1032400007006946414800F0C5FA06213F4800F0F2
:103250003DFB012000908DF8040000208DF8060051
:1032600002208DF8050001208DF8070069463748D7
:1032700000F0B0FA0121354800F028FB4FF400506F
:10328000009001208DF8040000208DF80600022037
:103290008DF8050001208DF8070069462C4800F0E4
:1032A00099FA01212A4800F011FB4FF400600090C8
:1032B00001208DF8040000208DF8060002208DF812
:1032C000050001208DF807006946224800F082FAC7
:1032D0004FF400611F4800F0F9FA0C491231881EC2
:1032E000FFF7EEF8FEF706FEFFF779FA08B10020C7
:1032F0001CBD4FF6FF70FEF7ABFBFFF761FBFFF75E
:1033000018FAFFF76CFA0120F2E700002400002011
:10331000700000205450204E656564207265616421
:103320006A757374210000004C0000204D000020DD
:103330001E000020546F7563682053637265656ECC
:103340002041646A757374204F4B210000040240D1
:10335000000802400014024010B504466FF004005B
:1033600000F094F9E11704EB5171C1F3C701394A38
:1033700011701046007800EB4001C1EBC0104FF611
:10338000FF7101EAC0003449088010BD0146314A8E
:1033900012784A434FF0E0235A6100229A611A469C
:1033A000126942F001021A6100BF4FF0E022106979
:1033B00000F001021AB100F48032002AF5D04FF07B
:1033C000E022126922F001024FF0E0231A6100228C
:1033D0009A6170470146204A12884A434FF0E02321
:1033E0005A6100229A611A46126942F001021A617A
:1033F00000BF4FF0E022106900F001021AB100F4A2
:103400008032002AF5D04FF0E022126922F001024A
:103410004FF0E0231A6100229A61704770B50446AC
:103420004FF4077094FBF0F0C6B24FF4077094FBB2
:10343000F0F100FB114085B205E04FF40770FFF793
:10344000C9FF701EC6B2002EF7D115B12846FFF78E
:10345000C1FF70BD5400002056000020014600BF8F
:10346000704700BF4C4A128802F04002002AF9D08F
:10347000C2B2494B9A80704710B588B0044601210A
:10348000084600F029FF0121102000F07FFF0722ED
:103490000921424800F029FA07220A213F4800F09A
:1034A00024FA4FF4C060069002208DF81C008DF8BD
:1034B0001D0000208DF81E0001208DF81F0006A9B8
:1034C000364800F087F902940020ADF80C00ADF802
:1034D0000E00ADF81000ADF814000C20ADF812008D
:1034E00002A92D4801F0B3F801212B4801F037F96A
:1034F000012240F22551284801F0E7F925208DF8F6
:10350000040003208DF805008DF8060001208DF8D9
:10351000070001A800F06DF808B010BD10B540F22A
:1035200025511D4801F00CFA10B31B4801F046F973
:10353000C4B21B48008800F40040C8B9184800888D
:1035400000F4804060B10A2C03D0002014490880A8
:1035500020E01348008840F400401149088019E039
:103560000D2C06D10E48008840F480400C4908809C
:1035700010E00B480088C0F30D000A490C540848BD
:103580000088401C0649088008460088C72801DDDD
:103590000020088010BD0000001001400000024023
:1035A0005C0000207E000020094880470948004751
:1035B000FEE7FEE7FEE7FEE7FEE7FEE7FEE7FEE7E3
:1035C000FEE7FEE704480549054A064B7047000040
:1035D0009903000889010008A8010020A80700201D
:1035E000A8030020A803002032490143324A116099
:1035F000704770B5002100230F22C4781CB32E4CF5
:10360000246804F4E064C4F5E064C4F30721C1F164
:103610000404E3B20A4144789C40E1B28478144047
:1036200021430C07210E254C05786155047804F0E0
:103630001F050124AC4005786D11AD0005F1E025B2
:10364000C5F8004109E0047804F01F050124AC40EE
:103650001B4D0678761145F8264070BD194A0A4080
:103660000243154B1B1F1A60704739B1124A121DD5
:1036700012680243104B1B1D1A6006E00E4A121D11
:10368000126882430C4B1B1D1A607047042808D136
:103690004FF0E021096941F004014FF0E02211618F
:1036A00007E04FF0E021096921F004014FF0E0222A
:1036B000116170470000FA050CED00E000E400E045
:1036C00080E100E080FFFF1F10B504469848844267
:1036D00008D10121084600F06AFE0021012000F017
:1036E00066FE76E09348844208D10121022000F072
:1036F0005EFE0021022000F05AFE6AE08E488442FD
:1037000008D10121042000F052FE0021042000F025
:103710004EFE5EE08948844208D10121082000F075
:1037200046FE0021082000F042FE52E08448844218
:1037300008D10121102000F03AFE0021102000F0F5
:1037400036FE46E07F48844208D10121202000F067
:103750002EFE0021202000F02AFE3AE07A48844222
:1037600008D10121402000F022FE0021402000F07D
:103770001EFE2EE07548844208D10121802000F011
:1037800016FE0021802000F012FE22E070488442E4
:1037900008D10121801500F00AFE0021A01500F0DB
:1037A00006FE16E06B48844208D10121401500F066
:1037B000FEFD0021601500F0FAFD0AE06648844233
:1037C00007D10121001500F0F2FD0021201500F0C5
:1037D000EEFD10BDF0B50A4600210023002400BF15
:1037E0003DE0012505FA01F3156805EA03049C4252
:1037F00034D105684F000326BE40B54305601579F6
:103800004E00B5400668354305601579012D02D09C
:103810001579022D16D185684F000326BE40B543A9
:10382000856055794E00B5408668354385604568AA
:1038300001268E40B5434560456896798E40B6B204
:1038400035434560C5684F000326BE40B543C5609B
:10385000D5794E00B540C6683543C560491C10296E
:10386000BFD3F0BD4FF6FF710160002101714171BE
:103870008171C171704708B54FF480320092009A8F
:103880000A430092009AC261C161009AC261C26992
:103890000092C269009208BD0246002013690B40E5
:1038A0000BB1012000E0002070470146086980B29A
:1038B00070470246002053690B400BB1012000E025
:1038C000002070470146486980B270470183704705
:1038D000418370470AB1018300E041837047416131
:1038E000704742694A4042617047F0B500230024A6
:1038F0004D07ED0E02FA05F3CE1000F1200555F844
:1039000026504E07F70E0F26BE40B543CF1000F1EC
:10391000200646F82750CE1000F1200555F8265015
:1039200045EA0304CE1000F1200545F82640F0BD1D
:10393000000002400004024000080240000C024067
:10394000001002400014024000180240001C024017
:1039500000200240002402400028024030B943F217
:10396000DB028100A1F1C0410A6005E043F2D2020E
:103970008100A1F1C0410A606FF07042411C8900D2
:10398000A1F1C0410A608100A1F1C041C1F8042148
:103990007047D0E901121143C26811430269114313
:1039A0004269114382691143C2691143026A11439A
:1039B000426A1143826A1143C26A1143026B114386
:1039C00002689200A2F1C0421160816808290BD1FF
:1039D00001688900A1F1C041096841F04002016815
:1039E0008900A1F1C0410A60416B0968426B5268CD
:1039F00041EA0211426B926841EA0221426B9289CC
:103A000041EA0241426B128A41EA0251426B127D45
:103A100041EA0261426B926911430268521C9200B2
:103A2000A2F1C0421160C16AB1F5804F1BD1816B18
:103A30000968826B526841EA0211826B926841EA1E
:103A40000221826B128A41EA0251826B127D41EAA5
:103A50000261826B9269114302689200A2F1C04236
:103A6000C2F8041107E06FF0704201688900A1F10B
:103A7000C041C1F80421704700210160022141606A
:103A800000218160C160016141618161C1610162A8
:103A90004FF480514162490081620021C16201639B
:103AA000F84941638163704751B18200A2F1C0427D
:103AB000126842F001038200A2F1C042136009E0E3
:103AC0008200A2F1C0421268EF4B1A408300A3F1BA
:103AD000C0431A60704710280AD118214FF02042C5
:103AE0001166402151664FF0FC319166D16610E0BD
:103AF0001821E64A116040214FF02042C2F884109C
:103B00004FF0FC31E14A083211604FF02042C2F818
:103B10008C10704730B5002100220023446844F027
:103B2000080485682C43C5682C4305692C43456906
:103B300044EA4524856944EA4531C4692468C56975
:103B40006D6844EA0524C5692D8944EA0544C569C0
:103B50002D7B44EA0562046A2468056A6D6844EABC
:103B60000524056A2D8944EA0544056A2D7B44EA4B
:103B700005630468102C05D14FF020442166A2662D
:103B8000E36608E0C14C21604FF02044C4F888206F
:103B9000BE4C0C34236030BD102101600021416017
:103BA0008160C160016141618161FC21C269116074
:103BB000C2695160C2699160C269D160026A1160D4
:103BC000026A5160026A9160026AD160704799B1DD
:103BD000102808D14FF02042126E42F004024FF03C
:103BE00020431A661DE0A94A126842F004024FF011
:103BF0002043C3F8802014E0102809D14FF0204260
:103C0000126EA14BDB1E1A404FF020431A6608E0EB
:103C10009E4A12689C4BDB1E1A404FF02043C3F8AB
:103C20008020704799B1102808D14FF02042126EC1
:103C300042F040024FF020431A661DE0934A12689A
:103C400042F040024FF02043C3F8802014E01028D7
:103C500009D14FF02042126E8B4B3F3B1A404FF080
:103C600020431A6608E0894A1268874B3F3B1A4096
:103C70004FF02043C3F880207047014600201029F0
:103C800003D14FF02042506F02E0804A1432106896
:103C9000704718207D492031086000200906C1F8CE
:103CA000A4004FF0FC30794928310860091D0860F4
:103CB000091D08607047016841F01001426841EA3F
:103CC0004221826841EA4231704A20321160C16863
:103CD0000968C268526841EA0221C268128941EA51
:103CE0000241C268127B41EA0261684A28321160CF
:103CF000016909680269526841EA02210269128970
:103D000041EA02410269127B41EA02615F4A2C32B8
:103D10001160416909684269526841EA02214269B9
:103D2000128941EA02414269127B41EA02614FF085
:103D30002042C2F8B01070470021016041608160EC
:103D4000FC21C2681160C2685160C2689160C2689B
:103D5000D160026911600269516002699160026973
:103D6000D160426911604269516042699160426963
:103D7000D160704748B145492031096841F00401DC
:103D80004FF02042C2F8A01009E0404920310968F4
:103D90003D4AD21E11404FF02042C2F8A010704799
:103DA00010B5F2B1102807D14FF020435B6E0B43E2
:103DB0004FF02044636632E0B0F5807F08D1334B8A
:103DC0001B1D1B680B434FF02044C4F8843026E0D1
:103DD0002E4B24331B680B434FF02044C4F8A4300F
:103DE0001DE0102807D14FF020435B6E8B434FF04E
:103DF0002044636613E0B0F5807F08D1234B1B1D80
:103E00001B688B434FF02044C4F8843007E01F4BFD
:103E100024331B688B434FF02044C4F8A43010BDFA
:103E200010B5024600200023102A03D14FF0204491
:103E3000636E09E0B2F5807F03D1144C241D236822
:103E400002E0124C2434236803EA01040CB101207F
:103E500000E0002010BD102807D14FF02042526E24
:103E60008A434FF020435A6619E0B0F5807F0FD1A6
:103E7000064A121D12688A434FF02043C3F884207B
:103E80000DE0000070730008FEFF0F00800000A02E
:103E9000234A12688A434FF02043C3F8A420704796
:103EA00070B502460020002300240025102A03D10B
:103EB0004FF02046736E08E0B2F5807F03D1184EB4
:103EC000203E336801E0164E336803EA010403EA3A
:103ED000D10514B10DB1012000E0002070BD102803
:103EE00008D14FF02042526E22EAD1024FF0204317
:103EF0005A6614E0B0F5807F09D1094A203A126869
:103F000022EAD1024FF02043C3F8842007E0044A9C
:103F1000126822EAD1024FF02043C3F8A420704770
:103F2000A40000A0F948006840F00100F7490860CB
:103F30000020F64908310860F4480068F449084058
:103F4000F2490860F348091D0860F348EF498431DD
:103F50000860F0481038091D0860EC48006820F43B
:103F60008020EA4908600020E8490C310860E749F0
:103F70008C31086070470021E44A921C1170114690
:103F80000870704710B501460022002300204A1136
:103F9000012A02D1DD4C236808E0022A03D1DB4C60
:103FA0007034236802E0D94C7434236801F01F0296
:103FB000012494401C400CB1012000E0002010BD01
:103FC00038B5002000900024002500BF3120FFF705
:103FD000D9FF05460098401C00900098B0F5A04F0E
:103FE00001D0002DF2D03120FFF7CCFF08B1012421
:103FF00000E00024204638BD01460020C34A106876
:1040000020F0F80040EAC10010607047C349086022
:1040100070470021BD4A703211701170012802D022
:1040200004280AD104E00121B84A7032117005E079
:104030000521B64A7032117000E000BF00BF704722
:10404000B7490860704770B5049C41EA82150126A3
:10405000C6EB530645EA0645054345EA0465AB4E03
:10406000361D356070BDAD4908667047820142EA71
:104070000172A64B84331A607047A849886670475E
:1040800010B5830143EA016343EA02739F4C88340D
:10409000236010BDA14908677047A049C8647047F4
:1040A00002460020994B0833186820F0EC6042EA81
:1040B00001031843954B08331860704702460020EF
:1040C000924B0833186820F0784042EA0103184305
:1040D0008E4B083318607047014600208B4A083227
:1040E000106820F0030008431060704787480830CC
:1040F000006800F00C00704701460020834A083237
:10410000106820F0F000084310607047014600205E
:104110007E4A0832106820F4E0500843106070476F
:1041200001460020794A0832106820F4604040EAD5
:10413000C10010607047F0B5002100220024022564
:1041400000260223714F08373F6807F00C0121B1A8
:10415000042905D0082937D105E0724F076036E001
:10416000714F076033E0694F3F1D3F68C7F38056CA
:10417000664F3F1D3F6807F03F036EB16A4FB7FBC4
:10418000F3F7DFF888C10CF1040CDCF800C0CCF3C5
:10419000881C07FB0CF40CE0624FB7FBF3F7DFF869
:1041A0006CC10CF1040CDCF800C0CCF3881C07FBDC
:1041B0000CF4564F3F1D3F68C7F301477F1C7D003D
:1041C000B4FBF5F7076002E0564F076000BF00BF81
:1041D0004E4F08373F6807F0F0010909534F7A5CEA
:1041E0000768D7404760494F08373F6807F4E051F8
:1041F000890A4E4F7A5C4768D7408760434F08373B
:104200003F6807F46041490B484F7A5C4768D740E4
:10421000C760F0BD002100F44072B2F5407F0AD1C2
:104220003A4A0832116821F4F811414A0240114318
:10423000364A08321160354A70321268C0F30B03F7
:104240001A43324B70331A6070473549443908605D
:1042500070473349403908607047364908607047F5
:1042600001460020294A8C32106820F01F004A1EA7
:104270001043264A8C321060704701460020234AC2
:104280008C32106820F4F8504A1E40EA02201F4A7F
:104290008C3210607047014600201C4A8C32106836
:1042A00020F4401008431060704701460020174A70
:1042B0008C32106820F440000843106070470146BB
:1042C0000020124A8C32106820F4403008431060FD
:1042D000704719490860704739B10C4A303212688A
:1042E00002430A4B30331A6006E0084A3032126843
:1042F0008243064B30331A607047F9B1034A3432B7
:1043000012680243014B34331A601CE0003802404B
:10431000FFFFF6EA10300024003000200000474282
:10432000800E47420024F40000127A005E00002054
:10433000FFFCFF0F5C014742E01147428F4A1268C1
:1043400082438E4B1A60704739B18C4A121D126835
:1043500002438A4B1B1D1A6006E0884A121D126830
:104360008243864B1B1D1A60704739B1834A0C3259
:1043700012680243814B0C331A6006E07F4A0C320C
:10438000126882437D4B0C331A60704739B17B4A07
:10439000103212680243794B10331A6006E0774AF4
:1043A000103212688243754B10331A60704739B16E
:1043B000724A243A12680243704B243B1A6006E0AA
:1043C0006E4A243A126882436C4B243B1A60704751
:1043D00039B16A4A203A12680243684B203B1A609E
:1043E00006E0664A203A12688243644B203B1A601A
:1043F000704739B1614A1C3A126802435F4B1C3B5B
:104400001A6006E05D4A1C3A126882435B4B1C3B13
:104410001A60704739B1594A143A12680243574B2F
:10442000143B1A6006E0554A143A12688243534B13
:10443000143B1A60704739B1504A103A126802436F
:104440004E4B103B1A6006E04C4A103A1268824309
:104450004A4B103B1A60704739B1484A1C32126807
:104460000243464B1C331A6006E0444A1C32126871
:104470008243424B1C331A60704739B13F4A2032A5
:10448000126802433D4B20331A6006E03B4A20325B
:1044900012688243394B20331A60704739B1374A6A
:1044A000243212680243354B24331A6006E0334A43
:1044B000243212688243314B24331A60704739B179
:1044C0002E4A2C32126802432C4B2C331A6006E021
:1044D0002A4A2C3212688243284B2C331A607047C8
:1044E00039B1264A303212680243244B30331A6005
:1044F00006E0224A303212688243204B30331A6081
:104500007047012808D11D493C31096841F0080174
:104510001A4A3C32116007E018493C31096821F021
:104520000801164A3C321160704739B1134A273AE4
:1045300012780243114B273B1A7006E00F4A273AC4
:10454000127882430D4B273B1A7070470B4840305E
:10455000006840F0807009494031086070470146AA
:104560000020064A283A12680A400AB1012000E0F9
:1045700000207047014926390870704734380240DE
:1045800010B50446FA48844208D101211020FFF7F3
:1045900052FF00211020FFF74EFF57E0F5488442FC
:1045A00009D101214804FFF735FF00214FF4003005
:1045B000FFF730FF4AE0F048844209D10121880426
:1045C000FFF728FF00214FF48020FFF723FF3DE095
:1045D000EA48844209D10121C804FFF71BFF0021EA
:1045E0004FF40020FFF716FF30E0E548844209D180
:1045F00001210805FFF70EFF00214FF48010FFF79F
:1046000009FF23E0DF48844208D101212020FFF781
:1046100012FF00212020FFF70EFF17E0DA48844246
:1046200009D101218807FFF7F5FE00214FF08040F6
:10463000FFF7F0FE0AE0D548844207D1012140058A
:10464000FFF7E8FE00216005FFF7E4FE10BD2DE94D
:10465000FF4705460E460024A14600BFA046B0898C
:1046600000B100BF2C8A24F44054F08804432C820B
:10467000AC8941F20C608443B08831890843718968
:1046800008430443AC81AC8A24F44074B0890443E9
:10469000AC826846FFF74FFDB548854202D0B94865
:1046A000854202D1DDF80C9001E0DDF80890A88980
:1046B00000F4004040B109EBC90000EB091031687B
:1046C0004900B0FBF1F707E009EBC90000EB091066
:1046D00031688900B0FBF1F76420B7FBF0F004010A
:1046E0002009642101FB1078A88900F4004040B142
:1046F000322000EBC800B0FBF1F000F007000443EB
:1047000008E0322000EB08106421B0FBF1F000F06B
:104710000F0004432C81BDE8FF874FF41651016060
:1047200000218180C18001810C2141810021818192
:10473000704710B502460020108A20F470600B8884
:104740004C8823438C882343CC882343184310820E
:1047500010BD0021018041808180C180704721B15E
:10476000828942F40052828104E082894DF6FF730F
:104770001A4082817047028B02F47F420283028BCF
:104780000A430283704721B1828942F40042828148
:1047900003E08289C2F30E028281704721B1828ACE
:1047A00042F40062828204E0828A4FF2FF731A4070
:1047B00082827047C1F30802828070470146888870
:1047C000C0F308007047028A4FF6F0731A40028265
:1047D000028A0A430282704721B1828942F00202B2
:1047E000828104E082894FF6FD731A40828170470E
:1047F00082894FF2FF731A40828182890A43828143
:104800007047028A4FF6DF731A400282028A0A4317
:104810000282704721B1028A42F48042028204E09F
:10482000028A4BF6FF731A4002827047818941F079
:1048300001018181704721B1828A42F0080282829F
:1048400004E0828A4FF6F7731A4082827047028B27
:10485000D2B20283028B42EA01220283704721B165
:10486000828A42F02002828204E0828A4FF6DF735D
:104870001A408282704721B1828A42F010028282FD
:1048800004E0828A4FF6EF731A4082827047828A70
:104890004FF6FB731A408282828A0A4382827047F3
:1048A00021B1828A42F00202828204E0828A4FF6BB
:1048B000FD731A40828270471AB1838A0B43838248
:1048C00002E0838A8B4383827047F0B5034600245D
:1048D00000260025002040F66A17B94200D100BF2B
:1048E0001846C1F3421401F01F06012707FA06F526
:1048F000012C01D10C3004E0022C01D1103000E079
:1049000014301AB107682F43076002E00768AF430D
:104910000760F0BD02460020B1F5007F00D100BF66
:1049200013880B400BB1012000E00020704701F418
:104930000072B2F5007F00D100BFCA430280704709
:1049400070B50246002400230025002040F66A16B8
:10495000B14200D100BFC1F3421501F01F0301268F
:1049600006FA03F3012D13D19689334017E00000B6
:10497000001001400044004000480040004C00404E
:10498000005000400014014000780040007C0040CE
:10499000022D02D1168A334001E0968A33400C1270
:1049A000012606FA04F41688344013B10CB1012034
:1049B00000E0002070BD10B50022002340F66A140C
:1049C000A14200D100BF0A1201249440A3B2DC43EB
:1049D000048010BD704700000FB41CB5074B06AA39
:1049E0007B4469460090059800F087F900206946ED
:1049F00000F096F91CBC5DF814FB00003D030000BC
:104A000070B5044685690068C10601D5302600E00E
:104A10002026C00707D070BDD4E901213046904759
:104A2000206A401C20626D1EF6D570BD70B504462C
:104A300085690078C00707D170BDD4E90121202025
:104A40009047206A401C20626D1EF6D570BD0000A4
:104A500070B504460D4621461068AFF300802188EA
:104A6000090502D50F4A7A4402E00E4A7A440E3212
:104A7000002104F1240305E000F00F060009965D13
:104A80005E54491C0028F7D120780023000704D584
:104A9000702D02D009B1022311322046BDE87040CA
:104AA00000F0CCB8222900002DE9F05F89460446C9
:104AB0004FF0000ADFF824B1FB44C0F820A02046E4
:104AC000E168884700287DD0252806D0D4E9012157
:104AD0009047206A401C2062F1E700255F4620468F
:104AE000E16888472028064607DB312E05D2B81931
:104AF00010F8200C08B10543F1E7A80701D525F00F
:104B00000405C4F81CA00027C4F818A02A2E09D058
:104B1000304600F07EF938B304EB8708303EC8F821
:104B2000186019E059F8041B204604EB87029161D4
:104B3000E1688847012F064618D1E069002820DA8D
:104B400025F020051DE0D8F8180000EB800006EBEA
:104B500040003038C8F818002046E168884706460B
:104B600000F057F90028EED1012F0AD02E2E08D1DF
:104B70002046E16888477F1C0646022F45F0200545
:104B8000C4DBA069002803DA404245F00105A061BA
:104B9000E80701D025F01005A6B1A6F141001928BB
:104BA00002D8203645F400654A4631462046256045
:104BB0004D46FBF723FB60B1012807D0ED1D25F022
:104BC000070000E007E000F1080978E705F10409B3
:104BD00075E730467AE7206ABDE8F09FF8280000C4
:104BE00010B5431C02E010F8011B71B18107FAD126
:104BF0004FF0013202C88C1A8C4314EAC211F9D06A
:104C0000C01A0A0603D0C01E10BDC01A10BD0A0487
:104C100001D0801E10BD0902FCD0401E10BD70479F
:104C200070477047704710B500F080F8006810BDFD
:104C300010B5044600F07AF8046010BD2DE9F04785
:104C40000D4699469246044600F1240801688806FC
:104C500004D5E06921F01001216000E00120A842A4
:104C600001DD471B00E00027A1697A1902EB09006A
:104C7000081AA0612078C00602D42046FFF7C0FEC3
:104C8000002608E0D4E901211AF806009047206ABE
:104C9000401C761C20624E45F4DB2078C0060AD505
:104CA0002046FFF7ADFE06E0D4E901213020904711
:104CB000206A401C2062381EA7F10107F4DC07E0DF
:104CC000D4E9012118F805009047206A401C2062B1
:104CD000281EA5F10105F3DC2046FFF7A7FE20788A
:104CE000000602D50220BDE8F0870120FBE70000A6
:104CF00001694A1C02610878704700B58FB0CDE9A0
:104D000001310021059105497944CDE9031011468F
:104D10006846FFF7C9FE0FB000BD0000E5FFFFFFCA
:104D20000A6802F8010B0A607047000000487047EB
:104D30004801002000487047480100207546FFF7F1
:104D4000F9FFAE4605006946534620F00700854648
:104D500018B020B5FEF736FCBDE820404FF0000645
:104D60004FF000074FF000084FF0000B21F0070153
:104D7000AC46ACE8C009ACE8C009ACE8C009ACE896
:104D8000C0098D46704710B50446AFF30080204639
:104D9000BDE81040FBF746BA00B52DED048BB0EE30
:104DA000409AF0EE609A83B051EC190B00F04AF98A
:104DB00041EC180B18EE100A18EE901A8DED008BCE
:104DC000002818BF0120084320F00040C0F17F6098
:104DD00000F1E040C00F14D019EE101A19EE900A3D
:104DE0008DED009B002918BF0121084320F00040F1
:104DF000C0F17F6000F1E040C00F04BF0120FFF769
:104E000017FFB0EE480A03B0F0EE680ABDEC048B61
:104E100000BD30380A2801D20120704700207047B9
:104E2000491058BFC1F140415B1058BFC3F1404326
:104E30008B42EFF3008070474FEA1153A3F5806374
:104E4000D3F11E03A8BFD3F1200C08DB4FF00042C2
:104E500042EAC12252EA505232FA03F07047094244
:104E60000BD4102BC4BF0020704703F5787CBCF135
:104E7000FF3F05D04FF0FF3070474FF00000704704
:104E800070B500F055F800BF4992248000207047AB
:104E9000F0E7B0FA80F310FA03F10AD0C3F11D0372
:104EA00003F580634FEA41504FEA035202EBD121F0
:104EB00070474FF00000704751EA030C17D41CF5FF
:104EC000801F58BFBCF5801F00F10680994218BFB3
:104ED000704708BF9042704707D711F5801F58BF31
:104EE00013F5801F19D499427047894270471CF509
:104EF000801F08D5BCF5801FF7D58B4218BF7047BF
:104F000008BF824270474FF4001C1CEB410F38BFB2
:104F10001CEB430F01D28B42704770B500F008F8CC
:104F2000922449004FF000514FF08053FFF778BFB3
:104F30000EF1020E2EF0030E5EF8046B364205D41D
:104F4000012A43EB030515F5001F12D8012841EB98
:104F5000010C1CF5001F0CD80ED14FEAD17C15F5C1
:104F6000001F0CEB4C0C0CF1020C08BF4CEBD37C7B
:104F700004E04FF0080C01E04FEAD37C0CEB4C0549
:104F800026FA05F606F00706B6F1040C06D20EEB7B
:104F9000860CBDE870404CF0010C6047DFE80CF077
:104FA000090B02024FF000414FF00000A1F5002173
:104FB00070BD19461046012851EB010418BFD4F505
:104FC000001484BF002001F0004170BD0808A0F566
:104FD00000114FEA3101704753EA010C17D41CF558
:104FE000801F58BFBCF5801F00F106808B4218BFA0
:104FF000704708BF8242704707D713F5801F58BF1C
:1050000011F5801F19D48B4270479B4270471CF5E5
:10501000801F08D5BCF5801FF7D5994218BF70478F
:1050200008BF904270474FF4001C1CEB430F38BF81
:105030001CEB410F01D2994270470FB40CBC03BC6A
:10504000FFF76BBF2DE9F04101F5801CBCF5001F97
:10505000C0F2A9804FEA115C21EA0C510CF1FD0C61
:1050600041F480115FEA5C0C0CF5C07C01D3400078
:10507000494130A4890241EA905187028E0E0A0C00
:10508000A45D04FB04F602FB06F6C6F14046A4FB51
:105090000662F60D46EA422606FB06F4A4FB01234F
:1050A0005242C3F1404338BF5B1EA6FB02420024BC
:1050B000E6FB0324D20B42EA4446A6FB0623A1FBEF
:1050C00002E2A3FB07E4E3FB61426442C2F1404E0B
:1050D00038BFAEF1010EA6FB04234FF00002E6FB41
:1050E0000E32A2FB03463400E2FB6264A1FB06E63B
:1050F000A4FB07E8E4FB61687642C8F1405838BF7A
:10510000A8F10108A2FB06E4A3FB08E5E2FB685452
:10511000A1FB05E6A7FB04E8E1FB648618F1200586
:1051200056F10006A809A8F11B08B10908F03F08CC
:10513000B8F10A0F40EA86601CD901EB0C51BDE8BA
:10514000F08100BFFCF5EEE8E2DDD8D3CFCBC7C3DA
:10515000C0BDB9B6B4B1AEACA9A7A5A3A19F9D9B94
:105160009A9896959392908F8D8C8B898887868557
:1051700084838281A0FB006800FB01F208EB4208F7
:10518000B8EB872807D5341858EB0104D5D5401C57
:1051900051F10001D1E7341A78EB0104CDD4401E5F
:1051A00071F10001C9E75FEA4C0C5FEA9C5C0DD12C
:1051B00005D34FF0000001F00041BDE8F081BDE8EB
:1051C000F04170B5FFF7B4FE6DDBFFBEBDE8F04106
:1051D0004FF00000004970470000F87F43004FEA9D
:1051E000D30C4FEA3C0C43401FBF40070CF1605109
:1051F00013F0FE4F70471CF0006F03D100200CF03D
:10520000004170470CF0004343EA507010B540EA8B
:10521000CC0000F00EF800BF000000924FEA000141
:10522000FFF7D4BE4FF000414FF00000A1F5002180
:1052300070470EF1020E2EF0030E5EF8044B24426E
:1052400004D44FEA4102B2F17F4F11D84FEA400334
:10525000B3F17F4F0CD80ED14FEAD07CB2F17F4F23
:105260000CEB4C0C0CF1020C08BF4CEBD17C04E0B5
:105270004FF0080C01E04FEAD17C0CEB4C0324FA10
:1052800003F404F00704B4F1040C06D20EEB840C12
:10529000BDE810404CF0010C6047DFE80CF0070857
:1052A00002024FF00040A0F5800010BD0846420009
:1052B00018BFD2F1807288BF00F0004010BD4FF0DF
:1052C0004070E1EE100A7047FFFFFFFFFFFFFFFF96
:1052D000FFFFFFFFFFFFFFFFFFFFFFFFFFFFFFFFDE
:1052E000FFFFFFFFFFFFBEF7FFFFDEFF38C6928C18
:1052F0008E6B6E6B107C96AD3CE7FFFFFFFFFFFFF0
:10530000FFFFFFFFFFFFFFFFFFFFFFFFFFFFFFFFAD
:10531000FFFFFFFFFFFFFFFFFFFFFFFFFFFFFFFF9D
:10532000FFFFFFFFFFFFFFFFFFFFFFFFFFFFFFFF8D
:10533000FFFFFFFFFFFF5DEF159D4F636C420A32D9
:105340008829461925194521E8318E6B38C6FFFF9B
:10535000FFFFFFFFFFFFFFFFFFFFFFFFFFFFFFFF5D
:10536000FFFFFFFFFFFFFFFFFFFFFFFFFFFFFFFF4D
:10537000FFFFFFFFFFFFFFFFFFFFFFFFFFFFFFFF3D
:10538000FFFFFFFF36A51053104B51530F4B6C3AE4
:10539000E93167212519E410A30862008308CB5284
:1053A0009AD6FFFFFFFFFFFFFFFFFFFFFFFFFFFF9B
:1053B000FFFFFFFFFFFFFFFFFFFFFFFFFFFFFFFFFD
:1053C000FFFFFFFFFFFFFFFFFFFFFFFFFFFFFFFFED
:1053D0003CE77063B363B87CF56311434D32EA294F
:1053E000882126190519051904110411E4108300F8
:1053F000A308728CFFFFFFFFFFFFFFFFFFFFFFFF10
:10540000FFFFFFFFFFFFFFFFFFFFFFFFFFFFFFFFAC
:10541000FFFFFFFFFFFFFFFFFFFFFFFFFFFFDBDEE1
:105420004B3AF042356C544BB1322E2AEB21A92174
:105430006719051904110411041104110411051947
:10544000E4104200AF73FFFFFFFFFFFFFFFFFFFF0E
:10545000FFFFFFFFFFFFFFFFFFFFFFFFFFFFFFFF5C
:10546000FFFFFFFFFFFFFFFFFFFFFFFF5DEF0932C1
:105470004C32104B8F324F2A2E2ACC198919892190
:105480004719051904110411C410C41004110411A2
:105490000411E41042003184FFFFFFFFFFFFFFFF14
:1054A000FFFFFFFFFFFFFFFFFFFFFFFFFFFFFFFF0C
:1054B000FFFFFFFFFFFFFFFFFFFFFFFFEC5247195A
:1054C0004C320B2AEC21EC210C22915BEE4A0611A6
:1054D00026190419E410E410A7296621A308051968
:1054E00004110411E4108200F7BDFFFFFFFFFFFF6E
:1054F000FFFFFFFFFFFFFFFFFFFFFFFFFFFFFFFFBC
:10550000FFFFFFFFFFFFFFFFFFFF35A58308882197
:1055100088218921AA218A216B42718CFFFF728C1C
:1055200083080411C4082942FBDE5DEFEC5A8308AE
:105530000411041104118308E831DFFFFFFFFFFFAE
:10554000FFFFFFFFFFFFFFFFFFFFFFFFFFFFFFFF6B
:10555000FFFFFFFFFFFFFFFFBEF7C731C410251994
:10556000261947194719A8298A52284A55ADFFFF1D
:10557000E831A30805194D6B4D6BFFFF7DEF452109
:10558000C410041104110411620076ADFFFFFFFF87
:10559000FFFFFFFFFFFFFFFFFFFFFFFFFFFFFFFF1B
:1055A000FFFFFFFFFFFFFFFF96B562000411041924
:1055B00005110519C4088B4AB6B55DEFF7BDFFFFAD
:1055C0008E6B62002942AA5A0842FFFFFFFFCC52AD
:1055D0008308041104110411A308AD52FFFFFFFF5B
:1055E000FFFFFFFFFFFFFFFFFFFFFFFFFFFF1CE7C6
:1055F000FFFFFFFFFFFFFFFF4E6362000411041176
:105600000411E41062008E63FFFFFFFFFFFFFFFF46
:10561000CF730100F39C2C6396B5FFFFFFFF2D5B5A
:105620008300041104110411E41067213DEFFFFF12
:10563000FFFFFFFFFFFFFFFFF8BDB7B59EEFCB52A7
:10564000B394FFFFFFFFDFFFE831A308041104114B
:1056500004110411A3084942FFF7FFF7FFFFFFFF02
:105660006A4A01007284FFFFFFFFFFF7DFEF093A8C
:10567000A3080411041104110411051118BEFFFF41
:10568000FFFFFFFFFFFFFFFFF07B6200E831C73144
:10569000410035A5FFFF5DEF4621C4100411041140
:1056A00004110411E410A308769DFFF7FFFFB7ADC6
:1056B000A308A308C7319EE7FFF7FFF776A5A30865
:1056C000E4100411041104110511051135A5FFFFA3
:1056D000FFFFFFFFFFFFFFFFDBDEA7298300C410F2
:1056E000C410C4101CE79EEF0511E410041104114E
:1056F000041104110419C408E510D16BD16BC5085D
:105700006400A50843002B32779DB3842519C4108B
:10571000041104110411041125192609359DFFFFF8
:10572000FFFFFFFFFFFFFFFFFFFFAF7362000419E2
:10573000051982000D5B8E9B621005110411041186
:105740000419E41085000511C439815A407B229C5C
:1057500043AC03A4839B82728249C218A400C50093
:10576000E41004190411051947196711EC5ABEFF1A
:10577000FFFFFFFFFFFFFFFFDFFFDBDEC410E410D2
:1057800004110511A41801C08388E4000519041947
:10579000C5084421438323D542FEE4FE27FF07FFCB
:1057A000A4FE64FE03FEA3FDE2FC42EC83B324628C
:1057B000E510C40804192619A81987210090D3BC44
:1057C000FFFFFFFFFFFFFFFFDFFFFFFF107C420037
:1057D00005190511832801D044F8A348E400C50841
:1057E000445A02EDE2FD02FE66FE74FFB8FF73FF4D
:1057F000E7F6A6F645F6A4F5C3FC62FCC2FCC2FCC3
:10580000E3CBC449061188198701A49001F8EC9AEA
:10581000FFFFFFFFFFFFFFFFFFFFFFFFBEF7E831C6
:1058200083000509824001C023F885F0A348A40045
:10583000445A02FD23CCC2DC04FE28FE48F646F69C
:1058400024F6E4F564FDE3FC62FCC2FC02E402DC45
:10585000E2FCA47A48016701C47824F802F884B015
:105860007DE7FFFFFFFFFFFFFFFFFFFFFFFFDBDE27
:105870002519A300C43802E022D844F8A6F8A47879
:105880006300432183728339829B21F561FD22FDF0
:10589000E2FCA2FC42FC42FC42FC22AB8341C392EC
:1058A000045226012519A49844F823F802F8A4D03C
:1058B0009EEFFFFFFFFFFFFFFFFFFFFFFFFFFFFF69
:1058C0009AD68729A50043B822F823E065F8E8F8BE
:1058D00007C983484200A30084006329A27A62B307
:1058E000A2CB62D302BB828A8339A400E500E50023
:1058F000E508C46064D844F824F823F802F88388E3
:10590000DBC6FFFFFFFFFFFFFFFFFFFFFFFFFFFF04
:10591000FFFF3DE7505B083123E843F844F065F8AA
:1059200009F9ABF989D10689A3484218020042005F
:1059300061008200620062008300A320C450A58839
:1059400085D865F844F844F823F823F803D082108A
:10595000C7295DEFFFFFFFFFFFFFFFFFFFFFFFFF17
:10596000FFFFFFFFFFFF6C32A53802D823F865F870
:1059700066F8A7F84AF90CFA4DFA4CEA0BD2A9B925
:1059800068B147A927B107B907D1E7E8C7F8A7F871
:1059900065F865F844F823F803F802D0A328050950
:1059A000C408EC5AFFFFFFFFFFFFFFFFFFFFFFFFF1
:1059B000FFFFFFFFFBDE0519C400A741E6C003F8A7
:1059C00086F8A7F887F886F8C7F829F98AF9ABF9B5
:1059D000ABF98BF96AF929F908F9C7F8A6F886F83E
:1059E00065F864F823F802F006B12529E400E41014
:1059F00025192519149DFFFFFFFFFFFFFFFFFFFF84
:105A0000FFFFFFFF96AD620082083595BACE8BA2EC
:105A100044D025F887F8A7F8C7F8A7F887F886F8DC
:105A200086F886F887F8A7F8A7F8A6F885F865F845
:105A300064F824F064B80D93BBB6CF6383080411F7
:105A4000E4106621493A5DEFFFFFFFFFFFFFFFFF14
:105A5000FFFFFFFFD3944200E410BBCEFFFFBEE781
:105A600076B5CCAA07C145E045F846F866F886F851
:105A700086F886F886F865F845F865F865E844D054
:105A800043A8018882903CD7FFEF55958308041105
:105A9000041105194619B394FFFFFFFFFFFFFFFF35
:105AA000FFFFFFFFB394410086215DDFFFFFFFFF93
:105AB000FFFFDFE77AC6D3B44EB32AC268D1E6E06F
:105AC000A6E8A5E8A5E8E6D888C906A922A802A8FC
:105AD00000A000C800D8F7E5FFE7F8ADC410E41057
