:020000040800F2
:1000000000000220F1B20008D91B0008DD1B000827
:10001000ED1B0008EF1B0008F11B000800000000AA
:1000200000000000000000000000000061700008F7
:10003000F31B00080000000001710008F51B000818
:1000400041B3000841B3000841B3000841B30008C0
:1000500041B3000841B3000841B3000841B30008B0
:1000600041B3000841B3000841B3000841B30008A0
:1000700041B3000841B3000841B3000841B3000890
:1000800041B3000841B3000841B3000841B3000880
:1000900041B3000841B3000841B3000841B3000870
:1000A00041B3000841B3000841B3000841B3000860
:1000B00041B3000841B3000841B3000841B3000850
:1000C00041B3000841B3000841B3000841B3000840
:1000D00041B3000841B3000841B3000841B3000830
:1000E00041B3000841B3000841B3000841B3000820
:1000F00041B3000841B3000841B3000841B3000810
:1001000041B3000841B3000841B3000841B30008FF
:1001100041B3000841B3000841B3000841B30008EF
:1001200041B3000841B3000841B3000841B30008DF
:1001300041B3000841B3000841B3000841B30008CF
:1001400041B3000841B3000841B30008011C000896
:1001500041B3000841B3000841B3000841B30008AF
:1001600041B3000841B3000841B3000841B300089F
:1001700041B3000841B3000841B30008000000008B
:0801800041B3000841B300087F
:1001900010B5054C237833B9044B13B10448AFF3C1
:1001A00000800123237010BD5C07002000000000C8
:1001B000C032030808B5034B1BB103490348AFF332
:1001C000008008BD0000000060070020C032030866
:1001D000034613F8012B002AFBD1181A0138704787
:1001E00001F0FF01102A2BDB10F0070F08D010F8E8
:1001F000013B013A8B422DD010F0070F42B3F6D1EC
:10020000F0B441EA012141EA014122F007047FF004
:1002100000070023F0E80256083C85EA010586EA5B
:10022000010685FA47F5A3FA87F586FA47F6A5FA97
:1002300087F68EB9EED1F0BC01F0FF0102F00702A3
:1002400032B110F8013B013A83EA010313B1F8D14E
:100250000020704701387047002D06BF354603382F
:10026000073815F0010F07D1013015F4807F02BF68
:10027000013015F4C03F0130F0BC0138704700BFB9
:1002800081F0004102E000BF83F0004330B54FEA47
:1002900041044FEA430594EA050F08BF90EA020FB4
:1002A0001FBF54EA000C55EA020C7FEA645C7FEA47
:1002B000655C00F0E2804FEA5454D4EB5555B8BF6A
:1002C0006D420CDD2C4480EA020281EA030382EADB
:1002D000000083EA010180EA020281EA0303362D6D
:1002E00088BF30BD11F0004F4FEA01314FF4801C40
:1002F0004CEA113102D0404261EB410113F0004F52
:100300004FEA03334CEA133302D0524263EB430308
:1003100094EA050F00F0A780A4F10104D5F1200EA6
:100320000DDB02FA0EFC22FA05F2801841F1000101
:1003300003FA0EF2801843FA05F359410EE0A5F1D5
:1003400020050EF1200E012A03FA0EFC28BF4CF006
:10035000020C43FA05F3C01851EBE37101F00045BC
:1003600007D54FF0000EDCF1000C7EEB00006EEBC9
:100370000101B1F5801F1BD3B1F5001F0CD3490853
:100380005FEA30004FEA3C0C04F101044FEA4452AA
:1003900012F5800F80F09A80BCF1004F08BF5FEA31
:1003A000500C50F1000041EB045141EA050130BD11
:1003B0005FEA4C0C404141EB0101013C28BFB1F523
:1003C000801FE9D291F0000F04BF01460020B1FA6E
:1003D00081F308BF2033A3F10B03B3F120020CDA41
:1003E0000C3208DD02F1140CC2F10C0201FA0CF01F
:1003F00021FA02F10CE002F11402D8BFC2F1200C84
:1004000001FA02F120FA0CFCDCBF41EA0C01904039
:10041000E41AA2BF01EB0451294330BD6FEA040482
:100420001F3C1CDA0C340EDC04F11404C4F120026D
:1004300020FA04F001FA02F340EA030021FA04F37F
:1004400045EA030130BDC4F10C04C4F1200220FAD6
:1004500002F001FA04F340EA0300294630BD21FA14
:1004600004F0294630BD94F0000F83F4801306BFDA
:1004700081F480110134013D4EE77FEA645C18BFCE
:100480007FEA655C29D094EA050F08BF90EA020F65
:1004900005D054EA000C04BF1946104630BD91EA5D
:1004A000030F1EBF0021002030BD5FEA545C05D160
:1004B0004000494128BF41F0004130BD14F580049F
:1004C0003CBF01F5801130BD01F0004545F0FE4113
:1004D00041F470014FF0000030BD7FEA645C1ABF48
:1004E000194610467FEA655C1CBF0B46024650EA7F
:1004F000013406BF52EA033591EA030F41F40021AB
:1005000030BD00BF90F0000F04BF0021704730B530
:100510004FF4806404F132044FF000054FF0000105
:1005200050E700BF90F0000F04BF0021704730B5C6
:100530004FF4806404F1320410F0004548BF40429B
:100540004FF000013EE700BF42004FEAE2014FEAF0
:1005500031014FEA02701FBF12F07F4393F07F4FCB
:1005600081F06051704732F07F4208BF704793F0CE
:100570007F4F04BF41F40021704730B54FF46074E1
:1005800001F0004521F000411CE700BF50EA0102E4
:1005900008BF704730B54FF000050AE050EA01028D
:1005A00008BF704730B511F0004502D5404261EBFD
:1005B00041014FF4806404F132045FEA915C3FF43E
:1005C000D8AE4FF003025FEADC0C18BF03325FEADB
:1005D000DC0C18BF033202EBDC02C2F1200300FA8C
:1005E00003FC20FA02F001FA03FE40EA0E0021FAB1
:1005F00002F11444BDE600BF70B54FF0FF0C4CF49F
:10060000E06C1CEA11541DBF1CEA135594EA0C0F50
:1006100095EA0C0F00F0DEF82C4481EA030621EA8B
:100620004C5123EA4C5350EA013518BF52EA0335C6
:1006300041F4801143F4801338D0A0FB02CE4FF078
:100640000005E1FB02E506F00042E0FB03E54FF0A8
:100650000006E1FB03569CF0000F18BF4EF0010EA0
:10066000A4F1FF04B6F5007F64F5407404D25FEA9C
:100670004E0E6D4146EB060642EAC62141EA55514F
:100680004FEAC52040EA5E504FEACE2EB4F1FD0C91
:1006900088BFBCF5E06F1ED8BEF1004F08BF5FEA0F
:1006A000500E50F1000041EB045170BD06F00046C1
:1006B00046EA010140EA020081EA0301B4EB5C046E
:1006C000C2BFD4EB0C0541EA045170BD41F4801166
:1006D0004FF0000E013C00F3AB8014F1360FDEBF8B
:1006E000002001F0004170BDC4F10004203C35DA67
:1006F0000C341BDC04F11404C4F1200500FA05F3EA
:1007000020FA04F001FA05F240EA020001F000428A
:1007100021F0004110EBD37021FA04F642EB060100
:100720005EEA430E08BF20EAD37070BDC4F10C042A
:10073000C4F1200500FA04F320FA05F001FA04F2EE
:1007400040EA020001F0004110EBD37041F10001DA
:100750005EEA430E08BF20EAD37070BDC4F12005E5
:1007600000FA05F24EEA020E20FA04F301FA05F24D
:1007700043EA020321FA04F001F0004121FA04F2F5
:1007800020EA020000EBD3705EEA430E08BF20EAC5
:10079000D37070BD94F0000F0FD101F000464000FF
:1007A00041EB010111F4801F08BF013CF7D041EA81
:1007B000060195F0000F18BF704703F00046520085
:1007C00043EB030313F4801F08BF013DF7D043EA56
:1007D0000603704794EA0C0F0CEA135518BF95EA0C
:1007E0000C0F0CD050EA410618BF52EA4306D1D193
:1007F00081EA030101F000414FF0000070BD50EAB2
:10080000410606BF1046194652EA430619D094EA3B
:100810000C0F02D150EA013613D195EA0C0F05D125
:1008200052EA03361CBF104619460AD181EA030179
:1008300001F0004141F0FE4141F470014FF0000031
:1008400070BD41F0FE4141F4780170BD70B54FF0CC
:10085000FF0C4CF4E06C1CEA11541DBF1CEA13554C
:1008600094EA0C0F95EA0C0F00F0A7F8A4EB05042E
:1008700081EA030E52EA03354FEA013100F0888025
:100880004FEA03334FF0805545EA131343EA1263EE
:100890004FEA022245EA111545EA10654FEA0026A3
:1008A0000EF000419D4208BF964244F1FD0404F55C
:1008B000407402D25B084FEA3202B61A65EB0305B8
:1008C0005B084FEA32024FF480104FF4002CB6EB75
:1008D000020E75EB030E22BFB61A754640EA0C00F5
:1008E0005B084FEA3202B6EB020E75EB030E22BF35
:1008F000B61A754640EA5C005B084FEA3202B6EB76
:10090000020E75EB030E22BFB61A754640EA9C0034
:100910005B084FEA3202B6EB020E75EB030E22BF04
:10092000B61A754640EADC0055EA060E18D04FEAC2
:10093000051545EA16754FEA06164FEAC30343EA62
:1009400052734FEAC2025FEA1C1CC0D111F4801F2F
:100950000BD141EA00014FF000004FF0004CB6E728
:1009600011F4801F04BF01430020B4F1FD0C88BFC7
:10097000BCF5E06F3FF6AFAEB5EB030C04BFB6EBD2
:10098000020C5FEA500C50F1000041EB045170BDC5
:100990000EF0004E4EEA113114EB5C04C2BFD4EBF2
:1009A0000C0541EA045170BD41F480114FF0000E76
:1009B000013C90E645EA060E8DE60CEA135594EAF2
:1009C0000C0F08BF95EA0C0F3FF43BAF94EA0C0FF5
:1009D0000AD150EA01347FF434AF95EA0C0F7FF46A
:1009E00025AF104619462CE795EA0C0F06D152EABE
:1009F00003353FF4FDAE1046194622E750EA4106A2
:100A000018BF52EA43067FF4C5AE50EA41047FF4B2
:100A10000DAF52EA43057FF4EBAE12E74FEA410215
:100A200012F5001215D211D56FF47873B3EB625240
:100A300012D94FEAC12343F0004343EA505311F067
:100A4000004F23FA02F018BF404270474FF00000F9
:100A5000704750EA013005D111F0004008BF6FF037
:100A6000004070474FF00000704700BF4FEA41025E
:100A7000B2F1E04324BFB3F5001CDCF1FE5C0DD9FC
:100A800001F0004C4FEAC0024CEA5070B2F1004F46
:100A900040EB830008BF20F00100704711F0804F49
:100AA00021D113F13872BCBF01F00040704741F40E
:100AB00080114FEA5252C2F11802C2F1200C10FA12
:100AC0000CF320FA02F018BF40F001004FEAC123F6
:100AD0004FEAD32303FA0CFC40EA0C0023FA02F39A
:100AE0004FEA4303CCE77FEA625307D150EA013370
:100AF0001EBF4FF0FE4040F44000704701F0004040
:100B000040F0FE4040F40000704700BF53B94AB9BE
:100B1000002908BF00281CBF4FF0FF314FF0FF3005
:100B200000F06EB9ADF1080C6DE904CE00F006F8E6
:100B3000DDF804E0DDE9022304B070472DE9F04759
:100B4000089D04468C46002B40F083808A4217465D
:100B500047D9B2FA82F242B1C2F1200024FA00F081
:100B60009140974040EA010C94404FEA1748230C0B
:100B7000BCFBF8F61FFA87FE08FB16C143EA0143E7
:100B800006FB0EF1994209D9FB1806F1FF3080F0FF
:100B90001981994240F21681023E3B445B1AA4B28D
:100BA000B3FBF8F008FB103344EA034400FB0EFEED
:100BB000A64509D93C1900F1FF3380F00581A6450F
:100BC00040F2028102383C4440EA0640A4EB0E04A5
:100BD00000261DB1D4400023C5E900433146BDE8DD
:100BE000F08702B9FFDEB2FA82F2002A50D1CB1BA5
:100BF0004FEA174E1FFA87F80126B3FBFEFC210CC3
:100C00000EFB1C3341EA034108FB0CF38B4207D96E
:100C100079180CF1FF3002D28B4200F2E980844651
:100C2000C91AA3B2B1FBFEF00EFB101143EA014456
:100C300008FB00F8A04507D93C1900F1FF3302D2A8
:100C4000A04500F2D9801846A4EB080440EA0C4005
:100C5000BFE78B4209D9002D00F0B1800026C5E91D
:100C6000000130463146BDE8F087B3FA83F6002E26
:100C70004AD18B4202D3824200F2B880841A61EBDF
:100C8000030101208C46002DA8D0C5E9004CA5E742
:100C9000C2F1200320FA03F6974001FA02F04FEA6E
:100CA000174ED9403043030CB1FBFEF61FFA87F80C
:100CB0000EFB161143EA014306FB08F1994204FAC0
:100CC00002F409D9FB1806F1FF3C80F08D809942AF
:100CD00040F28A80023E3B445B1A81B2B3FBFEF0D5
:100CE0000EFB103341EA034100FB08F38B4207D9A6
:100CF000791800F1FF3C73D28B4271D90238394424
:100D0000CB1A40EA064678E7C6F1200C03FA06F44F
:100D100022FA0CF31C4320FA0CF701FA06F34FEA0F
:100D2000144E21FA0CF11F433B0CB1FBFEF91FFAE4
:100D300084F80EFB191143EA014109FB08FA8A45C0
:100D400002FA06F200FA06F308D9611809F1FF3039
:100D500048D28A4546D9A9F102092144A1EB0A01EA
:100D6000BFB2B1FBFEF00EFB101147EA014700FBDA
:100D700008F8B84507D9E71900F1FF312ED2B84578
:100D80002CD90238274440EA0940A7EB0807A0FB0A
:100D900002894F45C64649461AD317D05DB1B3EB19
:100DA0000E0267EB010707FA0CFCF2404CEA020264
:100DB000F740C5E9002700263146BDE8F0872E46FA
:100DC00028460BE70646E9E61846FDE64345E5D228
:100DD000B8EB020E69EB04010138DFE70846D2E701
:100DE00060468DE78146B9E7664675E730464AE7D3
:100DF000ACF1020C394413E702383C4424E700BF4D
:100E0000704700BF10F8012B11F8013B012A28BFE1
:100E10009A42F7D0D01A70474FF0FF3C06E000BF6F
:100E20004FF0010C02E000BF4FF0010C4DF804CD73
:100E30004FEA410C7FEA6C5C4FEA430C18BF7FEA33
:100E40006C5C1BD001B050EA410C0CBF52EA430C61
:100E500091EA030F02BF90EA020F0020704710F1E1
:100E6000000F91EA030F58BF994208BF90422CBF70
:100E7000D8176FEAE37040F0010070474FEA410C69
:100E80007FEA6C5C02D150EA013C07D14FEA430C87
:100E90007FEA6C5CD6D152EA033CD3D05DF8040BF8
:100EA000704700BF8446104662468C46194663462A
:100EB00000E000BF01B5FFF7B7FF002848BF10F101
:100EC000000F01BD4DF808EDFFF7F4FF0CBF012046
:100ED00000205DF808FB00BF4DF808EDFFF7EAFFC2
:100EE00034BF012000205DF808FB00BF4DF808ED7D
:100EF000FFF7E0FF94BF012000205DF808FB00BF72
:100F00004DF808EDFFF7CEFF94BF012000205DF8FB
:100F100008FB00BF4DF808EDFFF7C4FF34BF012008
:100F200000205DF808FB00BF10B514464FF47A733B
:100F300092B2024803F0AFFA204610BDD8C001209B
:100F400030B599B0302200210DEB02000AF03CFAD6
:100F500000240794089409940A940B94039404942D
:100F6000059406940194214B1A6C42F080521A6445
:100F70001B6C03F080530193019B02941C4B1A6875
:100F800042F480421A601B6803F480430293029B80
:100F900009230C934FF480330D9301231193022501
:100FA00012954FF480031393082314934FF4A873FE
:100FB00015931695072317930CA803F0DDFA0F235A
:100FC0000793089509944FF4A0530A934FF4805364
:100FD0000B93052107A803F001FD03954FF400735F
:100FE000069303A803F0CEFD19B030BD00380240CF
:100FF0000070004008B503F0F5FFFFF7A1FF00F017
:1010000023F800F053FA00F0E3F800F075FA00F06E
:101010003BFB00F013FA00F0DFFA00F045FA00F0B5
:101020004DFB054A054906480AF080FA00F070F9C0
:1010300005F005FEFEE700BFE0A40308ECA40308EA
:10104000F8A40308704700002DE9F0418EB0002499
:1010500009940A940B940C940D940194564B1A6BBA
:1010600042F010021A631A6B02F010020192019A08
:1010700002941A6B42F004021A631A6B02F0040223
:101080000292029A03941A6B42F020021A631A6BBE
:1010900002F020020392039A04941A6B42F0800239
:1010A0001A631A6B02F080020492049A05941A6B78
:1010B00042F001021A631A6B02F001020592059ACE
:1010C00006941A6B42F002021A631A6B02F00202D3
:1010D0000692069A07941A6B42F008021A631A6B7A
:1010E00002F008020792079A08941A6B42F0400235
:1010F0001A631B6B03F040030893089BDFF8CC8056
:1011000022464FF40051404603F0D3FE2B4F2246B7
:101110004FF46061384603F0CCFE294E22464CF273
:101120000101304603F0C5FE1C2309930A940B9479
:1011300009A9244803F0D0FD4FF400530993012579
:101140000A950B940C9409A9404603F0C5FD4FF491
:10115000606309930A950B940C9409A9384603F02F
:10116000BBFD09950A940B9409A9174803F0B4FD37
:101170004CF2010309930A950B940C9409A930468B
:1011800003F0AAFD062309930A940B9409A930469B
:1011900003F0A2FD4FF44073099312230A930B95B9
:1011A00003230C9304230D9309A9304603F094FD07
:1011B0000EB0BDE8F08100BF0038024000140240CC
:1011C00000040240001002400000024000080240FB
:1011D00008B50548054B036001F0ADFF00B908BD37
:1011E000FFF730FFFBE700BF08B3012000300240EB
:1011F0000268094B9A4200D0704782B000230193E5
:10120000064B1A6B42F480521A631B6B03F4805333
:101210000193019B02B07047003002400038024049
:10122000024B01221A701878704700BFF4040020A6
:10123000024B01221A701878704700BFF404002096
:1012400000207047002070470120704708B503490F
:10125000034803F051FF034B187008BD78B7012015
:10126000F804002074B7012008B54FF4FA7004F0B8
:1012700017FF0F480AF0E0F94FF4C0610D4803F082
:101280001EFE4FF4FA6004F00BFF0B4C204605F0F5
:1012900057FA0A480AF0D0F909480AF0CDF9094886
:1012A0000AF0CAF9214608480AF040F9E4E700BF0D
:1012B00038A503080014024080B701204CA503089C
:1012C00060A5030884A5030804A5030808B507F072
:1012D00023FA04201EF08AF90DF0A2FC07F0F6FCB8
:1012E00009F0BAF80DF028F9FCE708B514F03CFC59
:1012F0000A2004F0D5FEF9E708B5FFF7A7FF00F0D4
:101300005DFA012005F0C8FCFBE77047704700005C
:1013100070B594B01A4C0FAD26460FCE0FC533688A
:101320002B6000210FA805F099FC164B18600AAD40
:1013300004F114060FCE0FC533682B6000210AA8F4
:1013400005F08CFC104B186005AD04F128060FCE9B
:101350000FC533682B60002105A805F07FFC0B4BFF
:1013600018606D463C340FCC0FC523682B600021FC
:10137000684605F073FC064B186014B070BD00BFE2
:10138000D832030884BF012088BF01207CB7012028
:1013900080BF0120234B1B6803B170472DE9F0414A
:1013A00086B0204B01221A60002400941E4B9A6BD9
:1013B00042F001029A639B6B03F001030093009BD0
:1013C0004FF48058CDF80480022702970394032637
:1013D00004960C25059501A9144803F07DFC4FF6F1
:1013E00080730193029703940496059501A9104810
:1013F00003F072FC4CF2337301930297039404964A
:10140000059501A90B4803F067FCCDF8048002970D
:1014100003940496059501A9074803F05DFC06B006
:10142000BDE8F081200D0020003802400014024089
:1014300000100240000C02400018024000B589B0C4
:1014400016484FF02043036003F582734360062380
:1014500083600022C2600261102343618261C26125
:10146000026242624FF480518162C262026342634F
:10147000826342640F21019102913C210391049205
:10148000059311230693079201A901F0D5FE10B927
:1014900009B05DF804FBFFF7D5FDF9E78CBF01202B
:1014A00008B5FFF777FF08BD7047000008B5094889
:1014B000094B0360002343607F228260FF22C260E9
:1014C00003614361836101F017FF00B908BDFFF7B5
:1014D000B9FDFBE7DCBF0120002800400268044B97
:1014E0009A4200D07047034B01221A60FAE700BF0E
:1014F000002800403C0E474208B50D480D4B0360E4
:10150000002343608360C36003614361836102F031
:101510001BFD30B94FF40061054802F02EFD18B9EB
:1015200008BDFFF78FFDF5E7FFF78CFDF8E700BF7B
:10153000FCBF0120002C0140F0B589B000230393CB
:1015400004930593069307930268204B9A4201D0B7
:1015500009B0F0BD0024009403F586335A6C42F4C0
:1015600000625A645A6C02F400620092009A01947C
:101570001A6B42F004021A631A6B02F00402019221
:10158000019A02941A6B42F008021A631B6B03F073
:1015900008030293029B4FF4F85303930227049726
:1015A0000594032606960C2507950DEB05010848C2
:1015B00003F092FB04230393049705940696079582
:1015C0000DEB0501034803F087FBC1E7002C014048
:1015D00000080240000C024008B50D480D4B0360A6
:1015E0004FF48273436000238360C36003614361EF
:1015F0004FF400728261C3610362436283620A2313
:10160000C36202F00AFD00B908BDFFF71BFDFBE74E
:1016100080C001200030014000B589B00023039351
:1016200004930593069307930268154B9A4202D0E0
:1016300009B05DF804FB0022019203F58433596C74
:1016400041F480515964596C01F480510191019920
:101650000292196B41F0020119631B6B03F0020344
:101660000293029B382303930223049305920323DE
:1016700006930523079303A9024803F02DFBD7E740
:10168000003001400004024008B50A480A4B0360DC
:101690004FF4E133436000238360C36003610C2295
:1016A00042618361C36102F0C7FE00B908BDFFF764
:1016B000C9FCFBE7D8C001200010014008B50A486A
:1016C0000A4B03604FF4E133436000238360C3603F
:1016D00003610C2242618361C36102F0ADFE00B977
:1016E00008BDFFF7AFFCFBE718C101200044004034
:1016F00000B58BB0002305930693079308930993D5
:1017000003682A4A934205D0294A934228D00BB055
:101710005DF804FB00210191264B5A6C42F0100247
:101720005A645A6C02F010020192019A02911A6BEB
:1017300042F001021A631B6B03F001030293029B48
:101740004FF4C063059302230693012307930323F9
:1017500008930723099305A9174803F0BDFAD6E7B4
:1017600000210391134B1A6C42F400321A641A6C74
:1017700002F400320392039A04911A6B42F00102C0
:101780001A631B6B03F001030493049B0C23059362
:101790000223069301230793032308930723099346
:1017A00005A9054803F098FAB1E700BF0010014011
:1017B00000440040003802400000024010B5094CCF
:1017C00000220949204605F045FE0849204605F05B
:1017D00058FE0749204606F014FB204605F058FE47
:1017E00010BD00BF58C101200C050020700500206D
:1017F000400500200368B3F1A04F00D0704710B53A
:1018000086B04FF4C0530193022302930024039443
:10181000032304930A23059301A90E4803F05CFAFD
:101820000D4B5A6B42F080025A6300945A6C42F49A
:1018300080425A645B6C03F480430093009B224611
:101840000521432003F052FB432003F083FB06B045
:1018500010BD00BF000002400038024008B500F58E
:101860006F71D0F8EC0305F02BFE08BD08B5C1EB95
:10187000C10300EB8303D3F80422D0F8EC0305F096
:101880004CFE08BD08B5C1EBC10300EB83035A6CE5
:10189000D0F8EC0305F077FE08BD08B5D0F8EC03EE
:1018A00005F0FBFE08BD10B50446C3684BB101212D
:1018B000D4F8EC0305F0DFFED4F8EC0305F0BCFE31
:1018C00010BD0021F4E7000010B50446D0F8EC0389
:1018D00005F0D4FE2268D2F8003E43F00103C2F8BE
:1018E000003E236A23B1034A136943F006031361E0
:1018F00010BD00BF00ED00E008B5D0F8EC0305F026
:10190000C6FE08BD08B5D0F8EC0305F0D6FE08BD4C
:1019100008B5D0F8EC0305F0CEFE08BD08B5D0F848
:10192000EC0305F0CCFE08BD08B5D0F8EC0305F0DB
:10193000C8FE08BD02780AB10020704710B5034602
:101940001548C0F8EC33C3F820024FF0A043036001
:10195000042343600222C260002303614361826169
:10196000C36103624362C362036300F0C9F980B9D3
:10197000094C8021204600F094FE402200212046A0
:1019800000F06BFE80220121204600F066FE002060
:1019900010BDFFF757FBEBE77CC3012008B5D0F87B
:1019A000200200F01DFA022805D8DFE800F0050447
:1019B0000200012000E0022008BD10B514461A46BE
:1019C0002346D0F8200200F00FFD022805D8DFE8FA
:1019D00000F005040200012000E0022010BD08B55F
:1019E000D0F8200200F034FD022805D8DFE800F02E
:1019F00005040200012000E0022008BD08B5D0F86F
:101A0000200200F00FFE022805D8DFE800F00504F0
:101A10000200012000E0022008BD08B5D0F8200235
:101A200000F0A2FD022805D8DFE800F0050402005E
:101A3000012000E0022008BD08B5D0F8200200F027
:101A4000C6FD022805D8DFE800F0050402000120E9
:101A500000E0022008BDD0F8203211F0800F08D13C
:101A600001F07F01C1EBC10103EB810191F8FA01A3
:101A7000704701F07F01C1EBC10103EB810191F8D7
:101A80003A00704708B5D0F8200200F09BFC02280D
:101A900005D8DFE800F005040200012000E0022084
:101AA00008BD08B5D0F8200200F034FD022805D8A2
:101AB000DFE800F005040200012000E0022008BD7C
:101AC00008B5D0F8200200F0EEFC022805D8DFE8C7
:101AD00000F005040200012000E0022008BD08B566
:101AE000D0F8200200F00DFD08BD000012230B808D
:101AF000004870472805002004230B8000487047E9
:101B00003C05002008B50A4628B90549054806F0F5
:101B100043F8034808BD0249024806F03DF8F8E7DB
:101B20006CC70120B8A5030810B50A46034C21462E
:101B3000034806F031F8204610BD00BF6CC70120F5
:101B4000CCA5030808B50A4628B90549054806F09A
:101B500023F8034808BD0249024806F01DF8F8E7DB
:101B60006CC70120E0A5030808B50A4628B9054955
:101B7000054806F011F8034808BD0249024806F07E
:101B80000BF8F8E76CC70120F0A5030808B50A4672
:101B900028B90549054805F0FFFF034808BD02497B
:101BA000024805F0F9FFF8E76CC70120FCA503081F
:101BB000002070474FF480330B604FF400731380A4
:101BC00000207047002070470020704700207047B9
:101BD00000207047002070477047000008B5024899
:101BE00009F02AFDFEE700BF30A60308FEE7FEE786
:101BF000FEE7704708B503F00FFA05F0CDF808BD11
:101C000008B5024800F002F908BD00BF7CC30120FE
:101C100000B583B0002200920D4B596C41F4804115
:101C20005964596C01F48041009100990192196C3A
:101C300041F0805119641B6C03F080530193019BA8
:101C40000F216FF0010003F051F903B05DF804FBC0
:101C5000003802402DE9F04383B007460C46D0F827
:101C60000080C1EBC10300EB8303DE6C1A6DB61A72
:101C70001B6C9E4200D91E4606F103094FEA9909E2
:101C800015E006F103094FEA9909C4EBC40507EB17
:101C90008505696C3B7C0093B3B2E2B2404600F02C
:101CA000F1FF6B6C33446B642B6D33442B65414601
:101CB00008EB441303F510639B699BB24B4512D9A3
:101CC000C4EBC40307EB83031A6DDB6C9A420AD2A0
:101CD0004BB19E1AC4EBC40307EB83031B6C9E42FB
:101CE000CFD91E46CDE73EB90123A340D1F83448F1
:101CF00024EA0304C1F83448002003B0BDE8F083AF
:101D000000286BD0F0B58BB00446032380F8B933BC
:101D1000FFF770FD206800F02BFD254655F8107B7D
:101D20006E460FCD0FC60FCD0FC695E8030086E8AF
:101D30000300231D0ECB384600F0D6FC002120689E
:101D400000F01CFD002210E0C2EBC20304EB830391
:101D5000012183F8391083F83820DA87002183F8CD
:101D60003B1019645964D96401320E2AECD900225F
:101D700018E0C2EBC20304EB8303002183F8F911DE
:101D800083F8F821DA8783F8FB11C3F80012C3F84F
:101D90000412C3F80C12236802F1400003EB800325
:101DA000596001320E2AE4D9254655F8107B6E465B
:101DB0000FCD0FC60FCD0FC695E8030086E80300D0
:101DC000231D0ECB384600F01DFD012384F8B933E6
:101DD000206801F032F900200BB0F0BD01207047FF
:101DE00090F8B833012B0ED010B50446012380F8CB
:101DF000B833006801F015F9206800F0B3FC00204A
:101E000084F8B80310BD0220704700002DE9F84F98
:101E100004460668304601F04BF908B1BDE8F88F7A
:101E20000746206801F015F90028F7D0206801F076
:101E300010F910F0020F04D02268536903F0020376
:101E40005361206801F005F910F4002574D1206871
:101E500001F0FFF810F4802F40F0D280206801F0EC
:101E6000F8F80028C0F23E81206801F0F2F810F482
:101E7000006F0AD0D6F8083813F0010F40F0418106
:101E80002268536903F400635361206801F0E1F8AC
:101E900010F4805F40F03981206801F0DAF810F426
:101EA000005F40F08281206801F0D3F810F0100F3D
:101EB00014D02268936923F010039361376A07F006
:101EC0000F08C7F34343022B00F00382062B00F0F8
:101ED0001F822268936943F010039361206801F028
:101EE000B8F810F0080F40F02582206801F0B1F832
:101EF00010F4801F40F02782206801F0AAF810F447
:101F0000001F40F02A82206801F0A3F810F0804FF3
:101F100040F02D82206801F09CF810F0040F3FF48F
:101F20007DAF23685D6815F0040F40F029822268B8
:101F300053682B43536071E7206801F08EF88046A8
:101F40003D4621E0C5EBC50204EB8202D2F8001247
:101F50001B69C3F31203C91AC2F81012D2F8001297
:101F6000D2F804320B44C2F8043228E019F0080F0A
:101F70003DD119F0100F04D006EB45131022C3F821
:101F8000082B01354FEA5808B8F1000F3FF45FAF56
:101F900018F0010FF5D05FFA85FA5146206801F07C
:101FA0006CF8814610F0010FE0D006EB45130122DA
:101FB000C3F8082B03F530632269012AC2D05146C9
:101FC0002046FFF753FC2369012BCFD1002DCDD143
:101FD000C5EBC50304EB8303D3F80C32002BC5D14A
:101FE00004F56F720121206801F082F8BEE72046F7
:101FF000FFF734FC06EB45130822C3F8082BB8E7BB
:10200000206801F032F880463D462EE0C5EBC5035E
:1020100004EB8303196C5A6C0A445A6446E019F0C5
:10202000080F04D006EB45130822C3F8082919F05D
:10203000100F04D006EB45131022C3F8082919F03D
:10204000400F04D006EB45134022C3F8082919F0CD
:10205000020F04D006EB45130222C3F8082919F039
:10206000800F3AD101354FEA5808B8F1000F3FF41C
:10207000F5AE18F0010FF5D05FFA85FA51462068E9
:1020800001F004F8814610F0010FC8D0012202FAD5
:1020900005F0D6F8343823EA0003C6F8343806EBE6
:1020A0004513C3F8082923699342AFD0514620460F
:1020B000FFF7E8FB2369012BB1D1002DAFD1C5EBB0
:1020C000C50304EB8303DB6C002BA8D104F56F720E
:1020D0000121206801F00CF8A1E729462046FFF70E
:1020E000B9FDBFE7D6F8043823F00103C6F8043879
:1020F0002046FFF701FC2268536903F00043536157
:10210000B2E62046FFF7E0FBBAE6B14606F5006806
:10211000D8F8043023F00103C8F8043010212068F7
:1021200000F042FB07E009EB4713FF22C3F8082940
:10213000C3F8082B01376368BB42F4D84FF0FF3374
:10214000C8F81830D8F81C3043F00113C8F81C3018
:10215000236BEBB1D8F8843043F00B03C8F884301C
:10216000D8F8443043F00B03C8F84430D6F80038B0
:1021700023F4FE63C6F8003804F56F72217C2068F2
:1021800000F0B6FF2268536903F48053536183E67D
:10219000D8F8143043F00B03C8F81430D8F81030D6
:1021A00043F00B03C8F81030E0E7206800F084FF2C
:1021B0002268D36823F47053D360206800F0CEFB0C
:1021C00090B90023E3604FF4007363612268D36821
:1021D00043F41053D3602046FFF765FB2268536930
:1021E00003F4005353615EE60323E360402363611D
:1021F00002F0A2FC644B0344644A934205D822686F
:10220000D36843F47053D360E5E7614B0344614AFC
:10221000934205D82268D36843F46053D360DAE769
:10222000A0F57403A3F510535B4A934205D82268C6
:10223000D36843F45053D360CDE7A0F18373A3F583
:10224000E743564A934205D22268D36843F4405389
:10225000D360C0E7524B0344524A934205D82268E8
:10226000D36843F43053D360B5E74F4B03444F4A30
:10227000934205D22268D36843F42053D360AAE77F
:102280004B4B03444B4A934205D22268D36843F434
:102290001053D3609FE7A0F1B773A3F55853464A94
:1022A000934205D22268D36843F40053D36092E787
:1022B000424B0344424A934205D22268D36843F416
:1022C000E053D36087E72268D36843F4C053D360F8
:1022D00081E747F6F0731F423FF4FBAD4FEA171B4F
:1022E000C8EBC80904EB8909C7F30A12D9F804122C
:1022F000304600F00DFECBF30A02D9F80432134445
:10230000C9F80432D9F810321A44C9F81022E0E5AD
:10231000082204F56F71304600F0FAFDC7F30A1782
:10232000C8EBC80204EB8202D2F810321F44C2F894
:102330001072CEE52046FFF7B0FA2268536903F029
:1023400008035361D1E5E9B22046FFF7E1FA2268BC
:10235000536903F480135361CEE5E9B22046FFF7D9
:10236000D1FA2268536903F400135361CBE5204688
:10237000FFF7D4FA2268536903F080435361C9E53B
:102380002046FFF7D1FAD2E5405327FFFF340C0077
:10239000401E1BFF3F420F007F4F120020D613004C
:1023A00060B6E5FE5FE3160000D3CEFE40771B006B
:1023B000C05BB3FEC091210020753800E05459FE87
:1023C000E09C410090F8B833012B0BD010B50446C7
:1023D000012380F8B833006800F013FE002084F871
:1023E000B80310BD0220704770B5054608464EB2CE
:1023F000002E20DB01F07F04C4EBC404A40004F52C
:10240000FC74291900F07F000870F60F4E708A6086
:10241000CB7006B1C880022B15D095F8B833012BCC
:1024200014D0012385F8B833286800F0B7FA0020EB
:1024300085F8B80370BD01F07F04C4EBC404A400A8
:1024400038342919DEE700230B71E6E70220F1E7B3
:1024500010B504460A4648B200281ADB01F07F0393
:10246000C3EBC3039B0003F5FC73E11802F07F028A
:102470000A70C00F487094F8B833012B11D00123B3
:1024800084F8B833206800F0D3FA002084F8B80349
:1024900010BD01F07F03C3EBC3039B003833E11889
:1024A000E4E70220F4E738B501F07F04C4EBC4018F
:1024B000890001F5FC710144C4EBC40500EB8505FE
:1024C000C5F80422C5F80C320023C5F8103285F88F
:1024D000F93185F8F8410369012B06D064B9DAB205
:1024E000006800F01FFB002038BDC4EBC40500EB02
:1024F0008505C5F80822F1E7DAB2006800F0D6FBDE
:10250000F1E701F00F01C1EBC10100EB8101B1F86E
:102510001002704738B501F07F04C4EBC401890094
:1025200038310144C4EBC40500EB85056A64EB64F3
:1025300000232B65012385F8393085F8384003697D
:10254000012B06D05CB9DAB2006800F0EBFA00208B
:1025500038BDC4EBC40500EB8505AA64F2E7DAB226
:10256000006800F0A3FBF2E738B504460A4648B21B
:1025700000281BDBC1EBC1039B0003F5FC73E118D2
:1025800001238B7002F07F050D70C00F487094F826
:10259000B833012B19D0012384F8B833206800F038
:1025A000C9FC5DB1002084F8B80338BD01F07F0399
:1025B000C3EBC3039B003833E118E1E704F56F7206
:1025C000217C206800F094FDECE70220EDE710B5D7
:1025D00004460A4648B200281ADBC1EBC1039B003F
:1025E00003F5FC73E11800238B7002F07F020A7080
:1025F000C00F487094F8B833012B11D0012384F830
:10260000B833206800F0C8FC002084F8B80310BD7F
:1026100001F07F03C3EBC3039B003833E118E2E70B
:102620000220F4E790F8B833012B14D010B504461B
:10263000012380F8B83311F0800F06D1006800F054
:10264000C7F8002084F8B80310BD01F07F010068CE
:1026500000F0AAF8F5E70220704730B40468606A19
:1026600019B940EA0240A06218E00D46A36A00EBE7
:1026700013400023691E8B4209DA03F1400104EB89
:102680008101496800EB11400133DBB2F2E740EA17
:10269000024005F13F0104EB81014860002030BC9D
:1026A000704703685962002070470000002301331F
:1026B0000C4A934211D80269002AF8DA036943F000
:1026C0000103036100230133064A934207D80269DC
:1026D00012F0010FF7D1002070470320704703204C
:1026E000704700BF400D030084B010B5044603A836
:1026F00080E80E00089B012B20D1A36B23F48033CC
:10270000A363E36823F4840323F04003E360E368F6
:1027100023F44013E3600F9B012B0AD02046FFF700
:10272000C5FF069B012B14D00020BDE8104004B06B
:102730007047E36843F48013E360EFE7E36843F036
:102740004003E3602046FFF7B1FF4FF48033A363FB
:10275000E7E7A36843F00603A360A36843F0200300
:10276000A360E1E7836843F00103836000207047C2
:10277000836823F0010383600020704708B5C368B5
:1027800023F0C043C360012905D041B9C36843F0B9
:102790008043C36003E0C36843F00053C36032204A
:1027A00002F04CFC002008BD890141F020010161CC
:1027B00000230133054A934205D8026912F0200F25
:1027C000F7D1002070470320704700BF400D030081
:1027D0001023036100230133054A934205D802699F
:1027E00012F0100FF7D1002070470320704700BF90
:1027F000400D0300D0F800381943C0F8001800203D
:102800007047000084B02DE97841044607A880E8AD
:102810000E00DDF84480B8F1000F17D1A36B43F42C
:102820000013A36325460023C4F8003E04F50066A8
:10283000D4F80038C4F800380C9B012B10D1099B48
:102840004BB900212046FFF7D5FF0DE0A36B43F401
:102850000023A363E6E701212046FFF7CBFF03E057
:1028600003212046FFF7C6FF10212046FFF79CFFFB
:102870002046FFF7ADFF0023336173614FF0FF3255
:10288000B261F36108E04FF09040C2F80009002205
:102890000A61FF228A600133079999420BD905EB3F
:1028A000431202F51061D2F800090028EBDB00208A
:1028B000C2F80009EBE7002308E04FF0904CC2F8A3
:1028C00000CB00220261FF228260013399420DD9C0
:1028D00005EB431202F53060D2F800CBBCF1000FDB
:1028E000EBDB4FF0000CC2F800CBEAE7336923F4CE
:1028F000807333610A9B012B1BD00022A2616FF011
:10290000804262611BB9A36943F01003A361A2690D
:10291000104B1343A3610D9B1BB1A36943F0080344
:10292000A361B8F1010F0ED00020BDE8784104B0DA
:102930007047094A3263326B42F4803242F003023C
:102940003263326BD9E7A36943F0804343F0040359
:10295000A361E9E700383C8000018000D0F8083826
:1029600000F5006013F0060F10D0836803F0060333
:10297000022B0DD0836803F00603062B0AD0836870
:1029800003F00603042B07D0002070470020704797
:1029900003207047032070470220704730B44B7803
:1029A000012B22D0D0F81C380D780122AA4043EA2E
:1029B0000243C0F81C380B7800EB4310D0F8003B02
:1029C00013F4004F0ED1D0F8003B8A68C2F30A021C
:1029D000C97842EA8142134343F0805343F40043F1
:1029E000C0F8003B002030BC7047D0F81C280D78A0
:1029F000AB409BB21343C0F81C380C7800EB44107A
:102A0000D0F8003913F4004FECD1D0F800398A68BF
:102A1000C2F30A02C97842EA814242EA845213436D
:102A200043F0805343F40043C0F80039DAE7000074
:102A300038B505460C464B78012B36D00B7801464D
:102A400000EB4313D3F8002B22F40042C3F8002B11
:102A5000237800EB43134FF00062C3F8002B237878
:102A600000EB43134FF08042C3F8002B00220132E9
:102A70002B4B9A4251D8237801EB431303F5306373
:102A80009B6813F0100FF2D1D5F8043843F480633B
:102A9000C5F80438D5F81C38217801228A4023EA89
:102AA0000243C5F81C38002038BD0B78014600EB06
:102AB0004313D3F8002922F40042C3F800292378F5
:102AC00000EB43134FF00062C3F80029237800EBBA
:102AD00043134FF08042C3F8002900220132104B0B
:102AE0009A4218D8237801EB431303F510639B68CF
:102AF00013F0804FF2D110212846FFF755FED5F88C
:102B00001C28217801238B409BB222EA0303C5F8DD
:102B10001C380020C8E70320C6E70320C4E700BF35
:102B2000400D030030B44B78012B39D00B7800EB0B
:102B30004313D3F8104BE40CE404C3F8104B0B78A8
:102B400000EB4313D3F8104B24F0FF5424F4C014CB
:102B5000C3F8104B4B690BB18B684B610B7800EBE2
:102B60004313D3F8104B44F40024C3F8104B0B78F4
:102B700000EB4313D3F8104B8D68C5F312052C43BB
:102B8000C3F8104B012A76D00B7800EB4310D0F835
:102B9000003B43F00443C0F8003B002030BC7047CA
:102BA0004B699BBB0B7800EB4313D3F8104924F01F
:102BB000FF5424F4C014C3F810490B7800EB4313FE
:102BC000D3F8104944F40024C3F810490B7800EB03
:102BD0004313D3F81049E40CE404C3F810490B780C
:102BE00000EB4313D3F8004944F00444C3F8004910
:102BF000012A39D04B69002BCFD0D0F8343809786E
:102C000001228A401343C0F83438C6E70B7800EB42
:102C10004313D3F81049E40CE404C3F810490B78CB
:102C200000EB4313D3F8104924F0FF5424F4C014EC
:102C3000C3F810494C698B689C4200D94B610B78F2
:102C400000EB4313D3F8104944F40024C3F81049AF
:102C50000B7800EB4313D3F810494D69C5F3120507
:102C60002C43C3F81049BAE70B7800EB43100B690B
:102C7000C0F8143991E7CA680B7800EB4313C3F826
:102C8000142B81E770B49DF80C4064B903339D08A0
:102C9000AC4208D200EB023303F5805351F8046BC9
:102CA0001E600134F4E7002070BC704770B582B03C
:102CB0004B78012B3ED00B7800EB4313D3F8104B2D
:102CC000E40CE404C3F8104B0B7800EB4313D3F887
:102CD000104B24F0FF5424F4C014C3F8104B4B697C
:102CE000002B40F0D3800B7800EB4313D3F8104B4C
:102CF0008D68C5F312052C43C3F8104B0B7800EB1D
:102D00004313D3F8104B44F40024C3F8104B012AAA
:102D100000F0DB80CB78012B00F0DE800B7800EB3D
:102D20004310D0F8003B43F00443C0F8003B0020C0
:102D300002B070BD4B696BBB0B7800EB4313D3F84B
:102D4000104924F0FF5424F4C014C3F810490B7840
:102D500000EB4313D3F8104944F40024C3F810499E
:102D60000B7800EB4313D3F81049E40CE404C3F8E8
:102D70001049012A54D0CB78012B57D04B69002B36
:102D800054D0D0F834380E780124B4402343C0F82E
:102D900034384BE00B7800EB4313D3F81049E40CC4
:102DA000E404C3F810490B7800EB4313D3F810493F
:102DB00024F0FF5424F4C014C3F810490C7800EB3D
:102DC0004414D4F810594B698E683344013BB3FB6B
:102DD000F6F34E4E06EAC3432B43C4F810390B7882
:102DE00000EB4313D3F810494D69C5F312052C438A
:102DF000C3F81049CB78012BBBD10B7800EB431300
:102E0000D3F8104924F0C044C3F810490B7800EB04
:102E10004313D3F8104944F00054C3F81049A8E70D
:102E20000B7800EB43130C69C3F81449CB78012BE2
:102E300013D00B7800EB4313D3F8004944F004445B
:102E4000C3F80049CB78012B7FF471AF00928B8AD5
:102E50000A78C968FFF716FF69E7D0F8083813F455
:102E6000807F09D10B7800EB4313D3F8004944F07D
:102E70000054C3F80049DCE70B7800EB4313D3F8A8
:102E8000004944F08054C3F80049D2E78C682344D9
:102E9000013BB3FBF4F30C7800EB4414D4F8105B63
:102EA0001A4E06EAC3463543C4F8105B0C7800EBB3
:102EB0004414D4F8106B8D689BB205FB03F3C3F385
:102EC00012033343C4F8103B21E7CA680B7800EBC8
:102ED0004313C3F8142B1DE7D0F8083813F4807F90
:102EE00009D10B7800EB4313D3F8002B42F00052CA
:102EF000C3F8002B12E70B7800EB4313D3F8002B39
:102F000042F08052C3F8002B08E700BF0000F81F12
:102F100010B404460846D11C890800238B4206D20F
:102F200004F58052126840F8042B0133F6E75DF88F
:102F3000044B70474B78012B17D00B7800EB4313F1
:102F4000D3F8002B002A05DBD3F8002B22F08042B7
:102F5000C3F8002B0B7800EB4310D0F8003B43F490
:102F60000013C0F8003B002070470B7800EB4313C0
:102F7000D3F80029002A05DBD3F8002922F080428B
:102F8000C3F800290B7800EB4310D0F8003943F464
:102F90000013C0F80039E6E74B78012B0FD00B780F
:102FA00000EB4313D3F8002B22F40012C3F8002BDC
:102FB000CB78023BDBB2012B19D9002070470B788C
:102FC00000EB4313D3F8002922F40012C3F80029C0
:102FD000CB78023BDBB2012BEFD80B7800EB431030
:102FE000D0F8003943F08053C0F80039E5E70B789A
:102FF00000EB4310D0F8003B43F08053C0F8003B97
:10300000DBE7D0F8003823F4FE63C0F80038D0F8CE
:103010000038090101F4FE611943C0F800180020CE
:10302000704708B5D0F8043823F00203C0F804381C
:10303000032002F003F8002008BD08B5D0F80438DA
:1030400043F00203C0F80438032001F0F7FF00202A
:1030500008BD4269806910407047D0F8183800F503
:103060000060C0691840000C7047D0F8183800F5AF
:103070000060C069184080B2704700EB4111D1F880
:10308000082B00F5006040691040704710B4D0F87C
:103090001048D0F83438CB40DB01DBB2234300EBDF
:1030A000411000F51060806818405DF8044B7047CF
:1030B000406900F001007047D0F8003923F4FF6345
:1030C00023F00703C0F8003900F500639A6802F0A6
:1030D0000602042A05D05A6842F480725A60002021
:1030E0007047D0F8002942F00302C0F80029F2E747
:1030F00010B40024C0F8104BD0F8104B44F4002456
:10310000C0F8104BD0F8104B44F01804C0F8104B26
:10311000D0F8104B44F0C044C0F8104B012903D044
:1031200000205DF8044B7047C0F8142B4FF080234B
:10313000C0F8003BF4E768B110B5044643792BB101
:103140000223637101236371002010BD0371FEF738
:103150004FF8F5E70120704770B40C6850F8243040
:10316000134E1E404A688D6842EA0503CA6813433D
:103170000A6913434A6913438A691343CA691343AB
:103180000A6A13434A6A13438A6A1343CA6A134397
:10319000CA6B13430A6B13433343082D04D040F822
:1031A0002430002070BC704743F04003F7E700BFB5
:1031B0008000F0FF30B4013250F8224004F0404467
:1031C0000B684D6843EA05138D6843EA0523CD6813
:1031D00043EA05430D69013D43EA05534D69023D4C
:1031E00043EA056389690B43234340F822300020FA
:1031F00030BC7047B3F5804F05D06FF0704340F896
:1032000022300020704730B450F82230094C1C4066
:103210000B684D6843EA05138D6843EA0523CD68C2
:1032200043EA054389690B43234340F822300020D9
:1032300030BC70470000F0CF28B370B50E4615467D
:10324000044690F84930CBB1214651F8080BFFF7FE
:1032500083FFA26831462068FFF7ACFF236BA268AA
:1032600029466068FFF7C6FF2268A16852F821303E
:1032700043F0010342F82130002070BD80F848304F
:10328000FEF70EF9E0E70120704738B50446026802
:10329000D36823F0A003D36001F0CAFE054623687B
:1032A000DB6813F0200F07D101F0C2FE401BB0F520
:1032B0007A7FF4D9032000E0002038BD38B50368D8
:1032C000DA6812F0400F01D0002038BD04464FF0FC
:1032D000FF32DA6001F0ACFE05462368DB6813F0CC
:1032E000400F07D101F0A4FE431BB3F57A7FF4D958
:1032F0000320EAE70020E8E738B500285CD0044660
:10330000437F002B41D0022363772368CA225A628D
:10331000236853225A622046FFF7D0FF0546002853
:1033200037D12268936823F4E00323F040039360CD
:1033300021688A6863682069034360690343134313
:103340008B602368E2681A6122681369A16843EA06
:10335000014313612268D36823F08003D36023689C
:103360009B6813F0200F1BD02268136C23F480237A
:1033700013642268136CA1690B4313642368FF2252
:103380005A6201236377284638BD0377FEF7A6F813
:10339000B9E72368FF225A62042363770125F2E725
:1033A0002046FFF772FF0028DED02368FF225A6212
:1033B000042363770125E6E70125E4E70C4B1B684E
:1033C0000C4AA2FB03235A0A41F2883303FB02F39F
:1033D0001A46013B42B1426B12F0800FF8D040F226
:1033E000FF538363002070474FF00040704700BFD9
:1033F00068050020D34D62100146134B1B68134A29
:10340000A2FB03235A0A41F2883303FB02F31A4654
:10341000013BAAB14A6B12F0450FF8D04B6B13F089
:10342000040F07D1486B10F0010006D140F2FF53A2
:103430008B6370470420886370470120886370475E
:103440004FF00040704700BF68050020D34D621068
:1034500001460F4B1B680F4AA2FB03235A0A41F295
:10346000883303FB02F31A46013B72B14A6B12F038
:10347000450FF8D0486B10F0040003D140F2FF5321
:103480008B6370470420886370474FF0004070479B
:1034900068050020D34D62100146124B1B68124A8A
:1034A000A2FB03235A0A41F2883303FB02F31A46B4
:1034B000013B9AB14A6B12F0450FF8D04B6B13F0F9
:1034C000040307D1486B10F0400009D040228A6302
:1034D0001846704740238B63042070474FF000402C
:1034E000704700BF68050020D34D621084B010B44F
:1034F00002AC84E80E000B46039A1343049A13436C
:10350000059A1343069A1343079A1343426822F419
:10351000FD4222F07F021343436000205DF8044B1C
:1035200004B07047D0F88000704703230360002088
:103530007047006800F0030070470B6883604B68B9
:103540008A681343CA6813430A691343C26822F4A2
:103550007F6222F00F021343C360002070470069AE
:10356000C0B2704782B00023019314300844019028
:10357000019B186802B0704738B504460D464F4BA2
:103580001B684F49A1FB03135B0A02FB03F21346BE
:10359000013A002B5BD0636B13F0450FF7D0636BE0
:1035A00013F0040F06D1636B13F0010F05D0012057
:1035B000A0634EE00420A0634BE02046FFF7CFFF5E
:1035C000A84201D0012044E040F2FF53A363002150
:1035D0002046FFF7C7FF03463A481840C8B3002B00
:1035E00038DB13F0804F38D113F0005F37D113F080
:1035F000805F36D113F0006F36D113F0806F36D173
:1036000013F0807F36D113F4000F36D113F4800FFE
:1036100036D113F4001F36D113F4801F36D113F4C2
:10362000802F36D113F4003F36D113F4803F36D1CA
:1036300013F4004F36D113F4804F36D113F4005FEA
:1036400036D113F0080F36D04FF4000001E04FF0F0
:10365000004038BD4FF00070FBE74020F9E78020C4
:10366000F7E74FF48070F4E74FF40070F1E74FF4A0
:103670008060EEE74FF40060EBE74FF48050E8E73E
:103680004FF40050E5E74FF48040E2E74FF400408C
:10369000DFE74FF40030DCE74FF48020D9E74FF448
:1036A0000020D6E74FF48010D3E74FF40010D0E7A6
:1036B0004FF48000CDE74FF48030CAE76805002062
:1036C000D34D621008E0FFFDF8B505460E461746DB
:1036D000224B1B682248A0FB0323580A41F288337F
:1036E00003FB00F31C46013B7CB36C6B14F0450FED
:1036F000F8D06B6B13F0040F06D16B6B13F0010F56
:1037000005D00120A86322E00420A8631FE028461A
:10371000FFF725FFB04201D0012018E040F2FF532F
:10372000AB6300212846FFF71DFF034610F46040FD
:1037300008D013F4804F0BD113F4004F0BD04FF48B
:10374000805004E01B0C3B8001E04FF00040F8BDCE
:103750004FF40050FBE74FF48030F8E76805002095
:10376000D34D62100B6843624B6883628B68CA68F2
:1037700013430A6913434A691343C26A22F0F702EA
:103780001343C3620020704730B587B004460191EF
:103790001025029540230393002304934FF4806384
:1037A000059301A9FFF7C9FE41F288322946204658
:1037B000FFF7E2FE07B030BD30B587B00446019296
:1037C0000725029540230393002304934FF480635D
:1037D000059301A9FFF7B1FE41F288322946204640
:1037E000FFF7CAFE07B030BD10B586B0044600230F
:1037F00001930293039304934FF48063059301A90B
:10380000FFF79BFE2046FFF7D9FD06B010BD10B5AF
:1038100086B004464FF4D5730193082302934023E6
:103820000393002304934FF48063059301A9FFF7EA
:1038300084FE2046FFF730FE06B010BD30B587B0DD
:1038400004460191372502954023039300230493F6
:103850004FF48063059301A9FFF76FFE41F28832B0
:1038600029462046FFF788FE07B030BD10B586B068
:10387000044641F0004141F4801101912923029353
:1038800040230393002304934FF48063059301A91D
:10389000FFF753FE2046FFF7DBFD06B010BD30B545
:1038A00087B0044601910625029540230393002327
:1038B00004934FF48063059301A9FFF73EFE41F2A4
:1038C000883229462046FFF757FE07B030BD30B595
:1038D00087B00446002301933325029540220392CA
:1038E00004934FF48063059301A9FFF726FE41F28C
:1038F000883229462046FFF73FFE07B030BD10B59D
:1039000086B004460023019302220292C022039251
:1039100004934FF48063059301A9FFF70EFE204640
:10392000FFF76AFD06B010BD10B586B004460191E0
:1039300009230293C0230393002304934FF480636D
:10394000059301A9FFF7F9FD2046FFF755FD06B0E5
:1039500010BD70B586B004460D46002301930326C2
:1039600002964022039204934FF48063059301A9C9
:10397000FFF7E3FD2A4631462046FFF7A5FE06B0D5
:1039800070BD70B582B00446002301930068FFF754
:103990002BFF054610B1284602B070BD2068FFF726
:1039A00036FF064610B30023A3642E46DEB9019B02
:1039B0005A1C01924FF6FF72934243D000212068B7
:1039C000FFF73CFF002840D100212068FFF74EFFA1
:1039D000064600283CD100212068FFF7C3FDC00F38
:1039E000E4D00646E2E700236364D4E70123A3643E
:1039F0000546EDB9019B5A1C01924FF6FF729342A6
:103A000029D000212068FFF719FF05460028C2D100
:103A10004FF080412068FFF729FF05460028BAD102
:103A200000212068FFF79EFDC30FE2D01D46E0E7AE
:103A300010F0804503D0012363643546ABE70023D3
:103A40006364A8E74FF08075A5E74FF08055A2E7C3
:103A50004FF080559FE74FF080759CE7F0B589B037
:103A600004460F4601F0E4FA064600230093019352
:103A700008212068FFF788FE054610B1284609B0E6
:103A8000F0BD216D09042068FFF7D8FE0546002827
:103A9000F4D14FF0FF3302930823039330230493B0
:103AA00002230593002306930123079302A92068AC
:103AB000FFF758FE2068FFF70AFF054658B1DDE71B
:103AC000FFF730FD4DF82500013501F0B1FA831BF9
:103AD000B3F1FF3F3DD02068426B40F22A431A42C7
:103AE00004D1436B13F4001FEFD0E9E7436B13F0ED
:103AF000080F25D1436B13F0020F24D1456B15F04D
:103B0000200523D140F2FF538363009A130203F48C
:103B10007F0343EA0263110A01F47F410B4343EA46
:103B200012637B60019A130203F47F0343EA02638A
:103B3000110A01F47F410B4343EA12633B609DE7A6
:103B4000082585639AE70225856397E72025856325
:103B500094E74FF0004591E710B582B0044600218C
:103B6000009101910068FFF7FDFC10F0007F13D178
:103B700069462046FFF772FF80B9019B13F4802F3E
:103B80000ED0216D09042068FFF758FE30B90221DC
:103B90002068FFF784FE01E04FF4006002B010BD22
:103BA0004FF08060FAE710B582B004460021009122
:103BB00001910068FFF7D6FC10F0007F13D1694631
:103BC0002046FFF74BFF80B9019B13F4803F0ED0D6
:103BD000216D09042068FFF731FE30B9002120680B
:103BE000FFF75DFE01E04FF4006002B010BD4FF042
:103BF0008060FAE730B4436E9A0F0A70C3F38362B1
:103C00004A70C3F301638B7090F86630CB7090F804
:103C100065300B7190F864304B7190F86B301B017C
:103C2000CB80B0F86A20CB889BB2C2F30314234345
:103C3000CB8002F00F020A7290F86930DA094A72FA
:103C4000C3F380128A72C3F34012CA72C3F3001224
:103C50000A7300224A73426C002A40F092809B0251
:103C600003F440630B61836E0A699B0003F47F7366
:103C700013430B61C36E0A6942EA93720A61C3F38C
:103C8000C2620A75C3F302634B75C26EC2F3074387
:103C9000C2F342548C75C2F38242CA755B0003F0D2
:103CA00006030B76C26EC2F307230C7EC2F3C0324A
:103CB00022430A760A69013242650C7E023402FA16
:103CC00004F444650A7AD5B20122AA408265520AF8
:103CD00002FB04F2C2654FF400720266C3F3801265
:103CE0004A765B0003F07E038B76C36E8A7EC3F355
:103CF000C01422438A7603F07F03CB76036F1A0E3B
:103D0000DC0F0C77C3F341744C77C3F382638B777A
:103D1000930003F00C03CB77036FCA7FC3F3815486
:103D20002243CA77C3F3405281F82020002281F851
:103D30002120C3F3004381F82230036FC3F3C03462
:103D400081F82340C3F3803481F82440C3F3403426
:103D500081F82540C3F3003481F82640C3F3812461
:103D600081F82740C3F3012381F82830036FC3F3A0
:103D7000460381F82930012381F82A30104630BCEF
:103D80007047012A1BD1836E1B0403F47C130B6163
:103D900090F86F200B6943EA02230B610A6990F8DF
:103DA0006E3013430B6190F86D300A690132920254
:103DB0004265C2654FF40072826502668EE7036851
:103DC00040F2FF529A63836B43F080538363012276
:103DD00080F834201046D2E770B590B00446012335
:103DE000ADF812300068FFF7A4FB00286AD0636CBE
:103DF000032B43D1636C032B5BD1636C032B1DD06E
:103E0000BDF81210216509042068FFF78DFD0546F5
:103E1000002859D100212068FFF7A4FB6066042127
:103E20002068FFF79FFBA06608212068FFF79AFB38
:103E3000E0660C212068FFF795FB206704212068CD
:103E4000FFF790FB000DE06405A92046FFF7D2FEC6
:103E5000226D120400232068FFF7AEFC054698BBD4
:103E6000234653F8106B93E807008DE807000434ED
:103E700094E80E003046FFF739FB25E02068FFF795
:103E80003EFD054600BB00212068FFF76BFB606725
:103E900004212068FFF766FBA06708212068FFF770
:103EA00061FBE0670C212068FFF75CFBC4F8800031
:103EB000A0E70DF112012068FFF74BFD0546002831
:103EC0009BD001E04FF08065284610B070BD000027
:103ED00070B58AB0044600250495059506950795AA
:103EE0000895762309930AAB13E907008DE80700CC
:103EF00004AB0ECB2068FFF7F9FA124E356020684C
:103F0000FFF713FB01233360022001F097F82046EE
:103F1000FFF737FD40B10246012084F83400A36B5F
:103F20001343A3630AB070BD2046FFF755FF024656
:103F300008B90020F6E7012084F83400A36B13438E
:103F4000A363EFE7A0802542A8B110B5044690F81E
:103F5000343063B1032384F834302046FFF7B8FFD0
:103F60000020A0632063012384F8343010BD037760
:103F7000FDF7E2FAEEE70120704730B58BB004465A
:103F80000D46032380F83430436C032B1CD0B1F56D
:103F9000805F08D0B1F5006F0AD079B1836B43F030
:103FA0000063836314E0836B43F0805383630FE00B
:103FB000FFF7D2FDA36B0343A36309E0FFF7F3FD13
:103FC000A36B0343A36303E0836B43F080538363DA
:103FD000A36B43B1236840F2FF529A63012084F837
:103FE00034000BB030BD63680493A3680593E368A5
:103FF0000693079563690893A36909930AAB13E9CC
:1040000007008DE8070004AB0ECB2068FFF76EFABF
:10401000012384F834300020E3E700283BD010B5BA
:1040200004460023836290F85130002B2ED00223E7
:1040300084F851302268136823F0400313606368EA
:10404000A2681343E268134322691343626913436E
:10405000A26902F400721343E2691343226A134314
:10406000A16A22680B431360638B03F00403616A47
:1040700022680B4353602268D36923F40063D36141
:1040800000206065012384F8513010BD80F8503065
:10409000FDF7C2FACBE70120704700002DE9F84395
:1040A000044601680A6922F44052C36813430B6155
:1040B0000168CA6822F4164222F00C028368006983
:1040C000034360690343E06903431343CB60216802
:1040D0004A6922F44072A36913434B61E369B3F563
:1040E000004F60D02368B84A934200F0148102F573
:1040F0008062934200F00F8100F024FD00EB80000D
:1041000000EB80006568AD00B0FBF5F5AF4EA6FB97
:1041100005356D092F0100F015FD00EB800505EB5D
:10412000850563689B00B5FBF3F900F00BFD00EB20
:10413000800000EB80006568AD00B0FBF5F5A6FBE4
:1041400005356D094FF0640808FB15952D013235D2
:10415000A6FB05356D0905F0F0053D4400F0F2FCC5
:1041600000EB800000EB80006768BF00B0FBF7F752
:1041700000F0E8FC00EB800000EB800063689B002F
:10418000B0FBF3F0A6FB0030400908FB10784FEAC3
:10419000081808F13208A6FB0836C6F34316236850
:1041A0002E449E600DE12368874A93425BD002F55E
:1041B0008062934257D000F0C5FC00EB800000EB1A
:1041C000800065686D00B0FBF5F5804EA6FB0535F7
:1041D0006D092F0100F0B6FC00EB800000EB8000C1
:1041E00065686D00B0FBF5F900F0ACFC00EB8000F9
:1041F00000EB800065686D00B0FBF5F5A6FB0535AA
:104200006D094FF0640808FB1595ED003235A6FBEB
:1042100005356D096D0005F4F8753D4400F092FC1C
:1042200000EB800000EB800067687F00B0FBF7F7D1
:1042300000F088FC00EB800000EB800063685B000E
:10424000B0FBF3F3A6FB03235B0908FB13784FEAEB
:10425000C80808F13208A6FB0836C6F342162368E0
:104260002E449E60ADE000F07DFC00EB800000EB92
:10427000800065686D00B0FBF5F5544EA6FB053572
:104280006D092F0100F06EFC00EB800000EB800058
:1042900065686D00B0FBF5F900F064FC00EB800090
:1042A00000EB800065686D00B0FBF5F5A6FB0535F9
:1042B0006D094FF0640808FB1595ED003235A6FB3B
:1042C00005356D096D0005F4F8753D4400F04AFCB4
:1042D00000EB800000EB800067687F00B0FBF7F721
:1042E00000F040FC00EB800000EB800063685B00A6
:1042F000B0FBF3F3A6FB03235B0908FB13784FEA3B
:10430000C80808F13208A6FB0836C6F3421623682F
:104310002E449E6055E000F025FC00EB800000EB91
:1043200080006568AD00B0FBF5F5284EA6FB0535AD
:104330006D092F0100F016FC00EB800505EB8505EB
:1043400063689B00B5FBF3F900F00CFC00EB800008
:1043500000EB80006568AD00B0FBF5F5A6FB053508
:104360006D094FF0640808FB15952D013235A6FB49
:1043700005356D0905F0F0053D4400F0F3FB00EB59
:10438000800000EB80006768BF00B0FBF7F700F02B
:10439000E9FB00EB800000EB800063689B00B0FB52
:1043A000F3F0A6FB0030400908FB10784FEA08182C
:1043B00008F13208A6FB0836C6F3431623682E44DC
:1043C0009E60BDE8F88300BF001001401F85EB51DF
:1043D0002DE9F84305460F4616469946DDF820803C
:1043E0002C68246837EA04030CBF01240024B4427B
:1043F0001FD1B8F1FF3FF3D0B8F1000F05D000F0A6
:1044000017FEA0EB09004045EAD92A68D36823F4D7
:10441000D073D3602A68536923F0010353612023CA
:1044200085F8393085F83A30002385F83830032094
:1044300000E00020BDE8F88358B310B5044690F8BA
:1044400039300BB3242384F839302268D36823F43D
:104450000053D3602046FFF721FE2268136923F43E
:10446000904313612268536923F02A035361226841
:10447000D36843F40053D3600020E063202384F822
:10448000393084F83A3010BD80F83830FDF730F913
:10449000D8E7012070472DE9F04182B01E4690F820
:1044A0003930DBB2202B58D104460D469046002906
:1044B00057D0002A57D090F83830012B55D001231F
:1044C00080F838300023C363212380F8393000F0AE
:1044D000AFFD0746A4F82480A4F8268017E00096D4
:1044E0003B46002280212046FFF772FF00283ED184
:1044F0002B882268C3F30803536023690BB9023584
:1045000005E0013503E015F8012B23685A60E38CC0
:104510009BB29BB1E28C92B2013A92B2E284A36860
:10452000B3F5805FDBD000963B4600228021204619
:10453000FFF74EFF0028E6D003200FE000963B4631
:10454000002240212046FFF743FF90B9202384F842
:104550003930002384F8383000E0022002B0BDE892
:10456000F0810120FAE70120F8E70220F6E70320B6
:10457000F4E70320F2E70000002800F0B98170B5ED
:1045800082B00446036813F0010F3BD0A64B9B6832
:1045900003F00C03042B2CD0A34B9B6803F00C03FB
:1045A000082B21D06368B3F5803F4FD0B3F5A02F1F
:1045B00052D09D4B1A6822F480321A601A6822F495
:1045C00080221A606368002B50D000F031FD054650
:1045D000954B1B6813F4003F14D100F029FD401BDC
:1045E0006428F5D903208AE18F4B5B6813F4800FB0
:1045F000D8D08D4B1B6813F4003F03D06368002BA9
:1046000000F07881236813F0020F54D0864B9B682A
:1046100013F00C0F3ED0844B9B6803F00C03082B67
:1046200033D0E368002B67D0804B01221A6000F082
:10463000FFFC05467C4B1B6813F0020F53D100F0C2
:10464000F7FC401B0228F5D9032058E1764A13688D
:1046500043F480331360B5E7734B1A6842F4802249
:104660001A601A6842F480321A60ABE700F0E0FC8E
:1046700005466D4B1B6813F4003FC3D000F0D8FC17
:10468000401B6428F5D9032039E1674B5B6813F4BC
:10469000800FC6D1644B1B6813F0020F03D0E36890
:1046A000012B40F02981604A136823F0F803216947
:1046B00043EAC1031360236813F0080F40D0636915
:1046C00063B35B4B01221A6000F0B2FC0546564B07
:1046D0005B6F13F0020F33D100F0AAFC401B0228DD
:1046E000F5D903200BE1504A136823F0F803216940
:1046F00043EAC1031360DEE74C4B00221A6000F06E
:1047000097FC0546484B1B6813F0020FD3D000F00E
:104710008FFC401B0228F5D90320F0E0444B002217
:104720001A6000F085FC05463F4B5B6F13F0020FEB
:1047300006D000F07DFC401B0228F5D90320DEE006
:10474000236813F0040F78D0374B1B6C13F0805F95
:104750000DD100230193344B1A6C42F080521A643D
:104760001B6C03F080530193019B012500E00025A1
:10477000304B1B6813F4807F21D0A368012B32D00B
:10478000052B36D0284B1A6F22F001021A671A6FD8
:1047900022F004021A67A368002B34D000F048FC12
:1047A0000646214B1B6F13F0020F45D100F040FC71
:1047B000801B41F288339842F3D903209FE01D4AC1
:1047C000136843F48073136000F032FC0646194B03
:1047D0001B6813F4807FD0D100F02AFC801B0228D4
:1047E000F5D903208BE0104A136F43F001031367E0
:1047F000D1E70D4B1A6F42F004021A671A6F42F0AC
:1048000001021A67C7E700F013FC0646064B1B6F50
:1048100013F0020F10D000F00BFC801B41F2883324
:104820009842F3D903206AE0003802400000474272
:10483000800E474200700040E5B9A369002B5DD0AF
:10484000314A926802F00C02082A5AD0022B17D083
:104850002E4B00221A6000F0EBFB04462A4B1B682B
:1048600013F0007F42D000F0E3FB001B0228F5D9D3
:10487000032044E0244A136C23F080531364DCE7E4
:10488000224B00221A6000F0D3FB05461E4B1B682A
:1048900013F0007F06D000F0CBFB401B0228F5D9B7
:1048A00003202CE0E369226A1343626A43EA82131D
:1048B000A26A5208013A43EA0243E26A43EA026307
:1048C000114A5360114B01221A6000F0B1FB0446FB
:1048D0000D4B1B6813F0007F06D100F0A9FB001BF5
:1048E0000228F5D903200AE0002008E0002006E0B5
:1048F00001207047012002E0012000E0002002B00A
:1049000070BD0120FBE700BF003802406000474255
:10491000F8B52F4B9B6803F00C03042B53D0082BE6
:1049200053D12B4B5A6802F03F025B6813F4800F9F
:1049300028D0274B5B68C3F3881358010021C01AA5
:1049400061F100018E0146EA906687013C1A66EB30
:104950000105E90041EA5471E000C01841F100018D
:104960004B0243EAD0534402204619460023FCF789
:10497000CDF8174B5B68C3F3014301335B00B0FB19
:10498000F3F023E0124B5B68C3F388135C0100254E
:10499000E41A65F10005AE0146EA9466A701381BEA
:1049A00066EB0501CC0044EA5074C500E81844F1F8
:1049B00000018B0243EA90538402204619460023EB
:1049C000FCF7A4F8D5E7034800E00348F8BD00BFB2
:1049D0000038024000127A000024F400002800F0A1
:1049E0009A8070B50D4604464F4B1B6803F00F03C9
:1049F0008B4208D2CBB24C4A1370136803F00F03FA
:104A00008B4240F08A80236813F0020F17D013F016
:104A1000040F04D0454A936843F4E053936023683D
:104A200013F0080F04D0414A936843F46043936045
:104A30003E4A936823F0F003A1680B439360236818
:104A400013F0010F32D06368012B21D09A1E012A86
:104A500025D9364A126812F0020F60D033498A68AD
:104A600022F0030213438B6000F0E2FA06462F4B5C
:104A70009B6803F00C036268B3EB820F16D000F062
:104A8000D7FA801B41F288339842F0D9032041E0E5
:104A9000264A126812F4003FE0D101203AE0234A8E
:104AA000126812F0007FD9D1012033E01E4B1B6841
:104AB00003F00F03AB4207D9EAB21B4B1A701B6815
:104AC00003F00F03AB422CD1236813F0040F06D080
:104AD000164A936823F4E053E1680B43936023681C
:104AE00013F0080F07D0114A936823F4604321693B
:104AF00043EAC1039360FFF70BFF0C4B9B68C3F3C2
:104B000003130B4AD35CD8400A4B18600F2000F007
:104B100043FA002070BD012070470120FAE7012010
:104B2000F8E70120F6E700BF003C024000380240F1
:104B300044A6030868050020014B1868704700BFB1
:104B40006805002008B5FFF7F7FF044B9B68C3F327
:104B50008223034AD35CD84008BD00BF003802401E
:104B600054A6030808B5FFF7E7FF044B9B68C3F39F
:104B70004233034AD35CD84008BD00BF003802402E
:104B800054A6030830B583B00446036813F0050F3C
:104B900006D1236813F0020F2ED1002003B030BDE0
:104BA000494B00221A6000F043FA0546474B1B6848
:104BB00013F0006F06D000F03BFA431B022BF5D92F
:104BC0000320EBE76268A3681B0743EA82133F4AAE
:104BD000C2F884303C4B01221A6000F029FA0546E5
:104BE0003A4B1B6813F0006FD3D100F021FA431B3E
:104BF000022BF5D90320D1E700230193334B1A6C24
:104C000042F080521A641B6C03F080530193019BA5
:104C10002F4A136843F48073136000F009FA0546C5
:104C20002B4B1B6813F4807F06D100F001FA431B65
:104C3000022BF5D90320B1E7244B1B6F13F440730B
:104C400012D0E26802F440729A420DD01F4B1A6FE4
:104C500022F440721F4901200860002008601A6792
:104C60001B6F13F0010F13D1E36803F44072B2F528
:104C7000407F1ED0154A936823F4F81393601349BC
:104C80000B6FE268C2F30B0213430B67002085E74A
:104C900000F0CEF905460D4B1B6F13F0020FE3D168
:104CA00000F0C6F9401B41F288339842F3D9032043
:104CB00074E706498A6822F4F81223F0704323F45B
:104CC000407313438B60DAE76800474200380240C4
:104CD00000700040400E474200230F2B00F2D980A5
:104CE000F0B482B039E0072200E00022B2403A433B
:104CF0000234684E46F82420674A1468EA4324EADE
:104D000005064F6817F4803F01D045EA0406624C5F
:104D10002660646802EA04064F6817F4003F01D079
:104D200045EA04065C4C6660A46802EA04064F6823
:104D300017F4801F01D045EA0406574CA660E468CA
:104D400022404E6816F4001F01D045EA0402524C7E
:104D5000E26001330F2B00F2998001229A400C6827
:104D600004EA020532EA0404F3D14C68022C01D0B3
:104D7000122C10D1DE08083650F826C003F00704C4
:104D8000A7000F24BC402CEA040C0C69BC4044EA88
:104D90000C0440F82640D0F800C05E000324B44064
:104DA000E7432CEA040C4C6804F00304B44044EAE2
:104DB0000C0404604C6804F1FF3CBCF1010F03D902
:104DC000112C01D0122C10D1846807EA040CCC6895
:104DD000B44044EA0C048460446824EA02024C684B
:104DE000C4F300149C4014434460C26817408A68AE
:104DF000B2403A43C2604A6812F0805FA9D00022F4
:104E00000192264A546C44F480445464526C02F477
:104E100080420192019A9C08A61C1E4A52F82670F4
:104E200003F0030296000F22B24027EA02071C4A51
:104E300090423FF45AAF02F5806290421AD002F5D8
:104E40008062904218D002F58062904216D002F53E
:104E50008062904214D002F58062904212D002F536
:104E60008062904210D002F5806290423FF43BAFE6
:104E700008223BE7012239E7022237E7032235E720
:104E8000042233E7052231E706222FE702B0F0BC07
:104E90007047704700380140003C01400038024034
:104EA000000002400369194201D001207047002030
:104EB00070470AB181617047090481617047436995
:104EC0005940416170470000074AD36823F4E0630A
:104ED0001B041B0C000200F4E060034343F0BF63BB
:104EE00043F40033D360704700ED00E030B4174B5B
:104EF000DB68C3F30223C3F10704042C28BF042496
:104F00001D1D062D18D9033B4FF0FF3505FA04F49B
:104F100021EA0401994005FA03F322EA0303194345
:104F200000280BDB0901C9B200F1604000F56140C7
:104F300080F8001330BC70470023E5E700F00F0055
:104F40000901C9B2024B1954F4E700BF00ED00E0BB
:104F500014ED00E000F01F02400901239340024AD3
:104F600042F82030704700BF00E100E00138B0F1A6
:104F7000807F0AD2064B5860064AF02182F823103F
:104F80000020986007221A6070470120704700BF18
:104F900010E000E000ED00E010B504460E4B18787C
:104FA0004FF47A73B3FBF0F30C4A1068B0FBF3F0E4
:104FB000FFF7DCFF68B90F2C01D901200AE00022BD
:104FC00021464FF0FF30FFF791FF054B1C6000209A
:104FD00000E0012010BD00BF600500206805002032
:104FE0006405002008B50B4B1A6842F400721A6081
:104FF0001A6842F480621A601A6842F480721A6079
:105000000320FFF761FF0F20FFF7C6FFFCF700FE4C
:10501000002008BD003C0240034A1168034B1B7886
:105020000B441360704700BF6CC90120600500206D
:10503000014B1868704700BF6CC9012038B50446A1
:10504000FFF7F6FF0546B4F1FF3F02D0044B1B7893
:105050001C44FFF7EDFF401BA042FAD338BD00BF50
:10506000600500200F49D1F8883043F47003C1F87F
:1050700088300D4B1A6842F001021A6000209860D7
:105080001A6822F0847222F480321A60074A5A6049
:105090001A6822F480221A60D8604FF000638B6097
:1050A000704700BF00ED00E00038024010300024DF
:1050B000104B5B7AE3B970B4044603F0FF000D4B6C
:1050C0005D7AEDB200265E555D7A03EB85056C6076
:1050D0005C7A1C4422725A7A541CE4B25C723032FC
:1050E0000A703A234B702F238B70CE7070BC7047C0
:1050F00001207047240D002008B50022FFF7D8FFDB
:1051000008BD00F1080343604FF0FF328260C360C6
:105110000361002303607047002303617047436805
:105120004B609A688A605160996008610368013336
:105130000360704730B40D68B5F1FF3F11D000F146
:1051400008031C465B681A68AA42FAD963684B6078
:1051500099608C606160086103680133036030BC52
:1051600070470469F2E70369416882688A604168B0
:1051700051605A68824205D00022026118680138E5
:105180001860704782685A60F6E710B5044601F06F
:1051900079FFA26BE36B9A4204D0002401F094FFE4
:1051A000204610BD0124F9E710B5044601F06AFF5E
:1051B000A36B23B9012401F087FF204610BD002412
:1051C000F9E770B504461546866B026C5AB9036858
:1051D0001BB100200136A66370BD406801F056FA8D
:1051E00000236360F6E76DB9806806F0DFF8226C93
:1051F000A3681344A3606268934219D32368A36031
:105200002846E7E7C06806F0D1F8226C5142E3680F
:105210009B1AE3602268934202D263680B44E36006
:10522000022D01D00020D5E726B1013E0020D1E7B4
:105230002846CFE70020CDE70346026C6AB110B5DF
:105240000846D9681144D9605C68A14201D3196845
:10525000D960D96806F0AAF810BD704738B5054680
:1052600001F010FF95F8454064B203E001F0C2F888
:10527000013C64B2002C08DD6B6A33B105F12400F7
:1052800001F01AF80028F3D0F0E7FF2385F8453045
:1052900001F01AFF01F0F6FE95F8444064B203E015
:1052A00001F0A8F8013C64B2002C08DD2B6933B191
:1052B00005F1100001F000F80028F3D0F0E7FF231B
:1052C00085F8443001F000FF38BD000038B5E0B18A
:1052D0000D46044601F0D6FE2168E26B236C03FB09
:1052E000021060600020A063A160013A02FB03137A
:1052F000E360FF2384F8443084F84530EDB9236936
:1053000063B901F0E1FE012038BD4FF0500383F393
:105310001188BFF36F8FBFF34F8FFEE704F11000CA
:1053200000F0CAFF0028ECD0084B4FF080521A6002
:10533000BFF34F8FBFF36F8FE3E704F11000FFF768
:10534000E0FE04F12400FFF7DCFEDAE704ED00E004
:1053500038B51D46049C0B4649B92460E0632364BC
:1053600001212046FFF7B2FF84F84C5038BD22607F
:10537000F4E740B94FF0500383F31188BFF36F8F08
:10538000BFF34F8FFEE7F0B583B00C4616460746D5
:1053900089B101FB00F0503001F068FD054638B1DD
:1053A0000090334600F1500221463846FFF7D0FF07
:1053B000284603B0F0BD0846EDE70000F0B585B023
:1053C000019288B10E461D460446B1B1022D20D18E
:1053D000E36B012B1DD04FF0500383F31188BFF313
:1053E0006F8FBFF34F8FFEE74FF0500383F31188A9
:1053F000BFF36F8FBFF34F8FFEE7036C002BE5D039
:105400004FF0500383F31188BFF36F8FBFF34F8FBB
:10541000FEE701F0DBF8074658B9019B002B44D0AA
:105420004FF0500383F31188BFF36F8FBFF34F8F9B
:10543000FEE7002739E02A4631462046FFF7C1FE45
:10544000626A6AB938B13C4B4FF080521A60BFF3C0
:105450004F8FBFF36F8F01F037FE012005B0F0BD15
:1054600004F1240000F028FF0028F4D0324B4FF064
:1054700080521A60BFF34F8FBFF36F8FEBE701F0DD
:1054800023FE0020EAE702A800F05EFF012719E0F2
:10549000002384F8443021E0002384F8453023E0E1
:1054A0002046FFF7DBFE00F07FFD01F0EBFDA26B75
:1054B000E36B9A42BFD3022DBDD0019B002BDED0FF
:1054C000002FE0D001F000FE00F0B2FC01F0DAFDA8
:1054D00094F844305BB2B3F1FF3FD9D094F8453033
:1054E0005BB2B3F1FF3FD7D001F0EEFD01A902A8F6
:1054F00000F040FFC8B92046FFF747FE0028CFD094
:10550000019904F1100000F0A3FE2046FFF7A6FE6B
:1055100000F04AFD0028C8D1074B4FF080521A60B6
:10552000BFF34F8FBFF36F8FBFE72046FFF796FEA5
:1055300000F03AFD002091E704ED00E048B110B51D
:10554000002141600160C1600B460A46FFF736FF4B
:1055500010BD704710B5024600210120FFF709FF7A
:105560000446FFF7EBFF204610BD2DE9F84390B14C
:10557000894690461F460446B1B1022F20D1E36B05
:10558000012B1DD04FF0500383F31188BFF36F8FB1
:10559000BFF34F8FFEE74FF0500383F31188BFF343
:1055A0006F8FBFF34F8FFEE7036C002BE5D04FF0FA
:1055B000500383F31188BFF36F8FBFF34F8FFEE764
:1055C00001F01AFFEFF311864FF0500383F31188B7
:1055D000BFF36F8FBFF34F8FA26BE36B9A4206D37B
:1055E000022F04D0002086F31188BDE8F88394F8D8
:1055F00045506DB23A4649462046FFF7E2FDB5F107
:10560000FF3F05D06B1C5BB284F845300120EAE710
:10561000636A0BB90120E6E704F1240000F04CFEB8
:1056200030B1B8F1000F05D00120C8F80000DAE76A
:105630000120D8E70120D6E768B170B50E460446D0
:10564000036C8BB14FF0500383F31188BFF36F8F5E
:10565000BFF34F8FFEE74FF0500383F31188BFF382
:105660006F8FBFF34F8FFEE70368EBB101F0C4FE0D
:10567000EFF311854FF0500383F31188BFF36F8F61
:10568000BFF34F8FA26BE36B934226D994F845305A
:105690005BB20132A263B3F1FF3F11D001335BB2C1
:1056A00084F84530012019E04368002BDED04FF02C
:1056B000500383F31188BFF36F8FBFF34F8FFEE763
:1056C000636A0BB9012009E004F1240000F0F4FD45
:1056D00038B146B10120306000E0002085F3118828
:1056E00070BD0120FAE70120F8E700002DE9F04144
:1056F00084B00192A0B10E461F460446C9B100F025
:1057000065FF804608BB019B002B00F085804FF0B1
:10571000500383F31188BFF36F8FBFF34F8FFEE702
:105720004FF0500383F31188BFF36F8FBFF34F8F98
:10573000FEE7036C002BE2D04FF0500383F3118897
:10574000BFF36F8FBFF34F8FFEE74FF0000863E0AA
:10575000D4F80C8031462046FFF76EFDF7B9013DC5
:10576000A56323683BB123694BB901F0ADFC01206F
:1057700004B0BDE8F08101F051F86060F3E704F196
:10578000100000F099FD0028EFD0454B4FF08052FB
:105790001A60BFF34F8FBFF36F8FE6E7C4F80C803A
:1057A000636A002BE1D004F1240000F085FD00289D
:1057B000DBD03B4B4FF080521A60BFF34F8FBFF3EB
:1057C0006F8FD2E701F080FC0020D1E702A800F043
:1057D000BBFD4FF001082AE0002384F8443032E09A
:1057E000002384F8453034E001F04CFC606800F0A0
:1057F000FDFE01F069FC3CE02046FFF72FFD00F0C4
:10580000D3FB09E02046FFF729FD00F0CDFB204641
:10581000FFF7CAFC002841D101F034FCA56B002D34
:1058200096D1019B002BCDD0B8F1000FCED001F066
:105830004BFC00F0FDFA01F025FC94F844305BB21B
:10584000B3F1FF3FC8D094F845305BB2B3F1FF3FEE
:10585000C6D001F039FC01A902A800F08BFD002898
:10586000D0D12046FFF7A0FC0028C5D02368002B2C
:10587000BAD0019904F1240000F0EAFC2046FFF7B9
:10588000EDFC00F091FB0028C6D1054B4FF0805293
:105890001A60BFF34F8FBFF36F8FBDE7002067E73C
:1058A00004ED00E02DE9F843C8B1894617460446E7
:1058B000F1B101F0A1FDEFF311864FF0500383F336
:1058C0001188BFF36F8FBFF34F8FD4F83880B8F1D2
:1058D000000F19D1002086F31188BDE8F8834FF03E
:1058E000500383F31188BFF36F8FBFF34F8FFEE731
:1058F000036C002BDDD04FF0500383F31188BFF30E
:105900006F8FBFF34F8FFEE794F844506DB2494656
:105910002046FFF791FC08F1FF33A363B5F1FF3F89
:1059200005D06B1C5BB284F844300120D3E72369B7
:105930000BB90120CFE704F1100000F0BDFC18B155
:1059400027B101203860C6E70120C4E70120C2E783
:10595000002300E00133072B0BD8064A52F833200E
:10596000002AF7D1034A42F8331002EBC303586010
:105970007047704770C9012070B504460D46164641
:1059800001F080FB94F844305BB2B3F1FF3F0DD0DF
:1059900094F845305BB2B3F1FF3F0BD001F094FBBC
:1059A000A36B5BB12046FFF759FC70BD002384F860
:1059B0004430EDE7002384F84530EFE732462946CE
:1059C00004F1240000F05CFCECE700000B4B1B68CA
:1059D000012B0FD901220A4B1B68D86A60B9094B09
:1059E0001B68012B09D842B9074B1868074B1B6885
:1059F000C01A70470022EEE700207047DC0D00203F
:105A0000300D00203C0D00200C0E0020540E002014
:105A100000230278A52A02D101300133F9E7C3F34C
:105A20008F007047084B1B681B6823B9074B4FF06A
:105A3000FF321A607047044B1B68DB68DB685A68EA
:105A4000024B1A60704700BF340D00200C0E00207E
:105A500010B50446006B01F081FA204601F07EFA91
:105A600010BD2DE9F04780460D4617469946089E21
:105A7000DDF824A00A9C9200A521206B05F0A4FC6F
:105A8000236B07F18042013A03EB820727F00707F7
:105A900000220F2A07D8A95CA31883F83410AB5C46
:105AA0000BB10132F5E7002384F84330062E00D90C
:105AB0000626E662E66400252565201DFFF72CFB1F
:105AC00004F11800FFF728FB2461C6F10706A66160
:105AD0006462656584F858504A464146384601F08C
